:100000000C942A000C9447000C9447000C94470071
:100010000C9447000C9447000C9447000C94470044
:100020000C9447000C9447000C9447000C94470034
:100030000C9447000C9447000C9447000C94470024
:100040000C9447000C9447000C9447000C94470014
:100050000C94470011241FBECFE5D4E0DEBFCDBF16
:1000600010E0A0E6B0E0EEEAF8E002C005900D92E4
:10007000A43DB107D9F710E0A4EDB0E001C01D9296
:10008000AE3DB107E1F70E9449000C9455040C9471
:1000900000000E94920178948CE00E94370180E079
:1000A00060E670E00E94800180E492E4AFE0B0E09E
:1000B0008093D8009093D900A093DA00B093DB002E
:1000C00080E094E2A4EFB0E08093D4009093D50058
:1000D000A093D600B093D7001092DC001092DD0000
:1000E00084ED90E00E94C503FFCF662349F1909A0A
:1000F00091988B9A8C9A8D9A8E9A969895989498B6
:10010000939887FD1FC086FD959A85FD949A84FD7E
:10011000939A929A00C092989698959894989398EA
:1001200083FD969A82FD959A81FD949A80FD939A1B
:10013000929A00C09298939A949A959A969A089552
:100140009098D6CF969ADFCF882309F1909A919A0A
:100150008B988C988D988E98929A00C0839B15C02E
:1001600080E18499806285998064869980689298FC
:1001700000C0929A00C083998160849982608599B9
:100180008460869988609298089580E0EACF90987C
:10019000DECF80E00E94A40087FDFBCF84E090E0EA
:1001A0000197F1F780E00E94A40008951F93182F93
:1001B0000E94C900812F60E00E9475001F91089580
:1001C0001F93182F0E94C900812F61E00E947500C3
:1001D0001F910895662321F080540E94D60008954F
:1001E00080580E94D60008950E94C90090E00895AA
:1001F00081E00E94D600089582E00E94D600089512
:100200001F93182F0E94C9001A3039F4803458F017
:1002100080E80E94D6001F910895812F61E00E941E
:1002200075001F91089580ECF4CFCF93DF93FC010C
:100230008081882339F0EF010E9400018981219695
:100240008823D1F7DF91CF910895CF93DF93FC01FD
:100250008491882349F0EF0121960E940001FE015C
:10026000219684918823C9F7DF91CF9108951F9338
:10027000182F889A899A8A9A8B9A8C9A8D9A8E9A34
:1002800080E09DE70197F1F7949A939A929A00C0C3
:10029000929880E097E20197F1F7929A00C09298C5
:1002A00080E890E0FC013197F1F7929A00C09298B3
:1002B000FC013197F1F79398929A00C092980197B8
:1002C000F1F788E20E94D60088E00E94D6000E94E2
:1002D000F80086E00E94D600812F0E94D6001F9170
:1002E00008951F93682F80E00E94EA0010E08BE6DB
:1002F00090E00E9415011F5F1031C9F71F9108950A
:10030000FF920F931F93F82E8B010E94710180E0E2
:100310006F2D0E94EA00C8010E9415011F910F91E4
:10032000FF9008958FEF84BB8AB3806F8ABBBA9821
:10033000C29A8BB780628BBF0895DF98DD9ADC9AF2
:10034000DE9ADF9A9FEF94BB85BB82E0982F9A9547
:10035000F1F7DF98982F9A95F1F7DE98DD9893B32F
:100360008A95F1F783B3DD9ADE9A0895DF98DD9AD6
:10037000DC9ADE9ADF9A2FEF24BB65BB92E0392F1F
:100380003A95F1F7DF98392F3A95F1F7DE98DC9836
:1003900024BB85BB892F8A95F1F7DC9ADE9A9A9562
:1003A000F1F708958BB780628BBF08958BB78F7D6F
:1003B0008BBF08951F93CF93DF9380E00E949D0130
:1003C00080FF1BC010E0C8ECD0E08E7160E00E949E
:1003D000B601CE010197F1F71F5F80E00E949D01F9
:1003E00080FF09C01B3089F781E06DE670E00E9454
:1003F00080018FEF0AC01A30B8F70E94D20181E065
:100400006EE770E00E94800180E0DF91CF911F9144
:1004100008951F93CF93DF930E94D60180E00E943E
:100420009D0180FD1DC010E0C8ECD0E0816060E05F
:100430000E94B601CE010197F1F71F5F80E00E9494
:100440009D0180FD0BC01B3089F781E06BE870E0F7
:100450000E9480010E94D2018FEF08C01A30A8F7D5
:1004600081E067E970E00E94800180E0DF91CF9138
:100470001F9108952F923F924F925F926F927F92B9
:100480008F929F92AF92BF92CF92DF92EF92FF92A4
:100490000F931F93DF93CF93CDB7DEB767970FB658
:1004A000F894DEBF0FBECDBF698B7A8B8B8B9C8B94
:1004B00049015A010D8BEE8ACF8A0E9409028823D6
:1004C00009F03AC1A50194015695479537952795AE
:1004D00029873A874B875C8780E09AECAAE9BBE3DF
:1004E0008D879E87AF87B88B1D821E821F821886DC
:1004F00019821A821B821C8234E0E32EF12C012D1A
:10050000112D38C0CA01B901A40193010E9414043D
:100510009B01AC0169857A858B859C850E9433049B
:1005200089899A89AB89BC89821B930BA40BB50B73
:100530002D853E854F855889281739074A075B075F
:1005400008F44DC08D879E87AF87B88B0894E11C57
:10055000F11C011D111D32E3E316F1040105110523
:1005600009F446C0AD82BE82CF82D88629823A8203
:100570004B825C8257016801D694C794B794A794C4
:10058000350146010894611C711C811C911CC40139
:10059000B30129893A894B895C890E9414049B0123
:1005A000AC0169857A858B859C850E943304D801CE
:1005B000C70181709070A070B070280F391F4A1F5A
:1005C0005B1F19012A0108942108310841085108CC
:1005D00090E4291631044104510408F493CFAD800E
:1005E000BE80CF80D88429803A804B805C80AECF9B
:1005F0008D859E85AF85B8890097A105B10581F0ED
:1006000069897A898B899C892D853E854F85588992
:100610000E9433042A3031054105510508F487C092
:10062000C601B5016F5F7F4F8F4F9F4FAE892A2F55
:1006300030E040E050E00E94140424E630E040E066
:1006400050E00E94330435014601621A730A840A9D
:10065000950AB8E06B1671048104910408F061C03A
:100660002EEF3FEF4FEF5FEFA20EB31EC41ED51E5D
:10067000D601C50186199709A809B90922E030E019
:1006800040E050E0A20EB31EC41ED51E803191057D
:10069000A105B105C0F5182F3D893295330F330FF1
:1006A000307C832F822966E00E94B6014F8941FD8C
:1006B00045C090E0862D8295807F812B892B67E055
:1006C0000E94B6010E94DA0181E06FEA70E00E94A8
:1006D000800180E067960FB6F894DEBF0FBECDBFF5
:1006E000CF91DF911F910F91FF90EF90DF90CF900E
:1006F000BF90AF909F908F907F906F905F904F9042
:100700003F902F9008958FEE682E8FEF782E8FEF09
:10071000882E8FEF982E6A0C7B1C8C1C9D1C1FE072
:10072000BBCF97E0692E712C812C912C99CF81E061
:1007300060EA70E00E9480018FEFCCCF90E8BACFE2
:100740000F931F93182F062F0E940902882321F070
:100750008FEF1F910F910895812F8695869586952D
:1007600064E00E94B601802F86958695869565E0A7
:100770000E94B6010E94DA0181E06CEB70E00E94F9
:10078000800180E01F910F910895CF92EF920F9317
:10079000CF93DF93EC010E940902882339F08FEF99
:1007A000DF91CF910F91EF90CF90089588856FE101
:1007B0000E94B601898568E00E94B60180E090E061
:1007C0006FEF7FEF0E94A003882349F76C817D8142
:1007D0008E819F81611571058105910561F480E429
:1007E00092E4AFE0B0E08C839D83AE83BF8360E48E
:1007F00072E48FE090E0288139814A815B8100E0DA
:10080000EBE4EE2ECC240E943A02882341F68EE1DE
:1008100060E00E94B6010E94DA0181E069EC70E0BC
:100820000E94800180E0BCCF629FD001739FF001E5
:10083000829FE00DF11D649FE00DF11D929FF00D70
:10084000839FF00D749FF00D659FF00D9927729FA7
:10085000B00DE11DF91F639FB00DE11DF91FBD0132
:10086000CF0111240895A1E21A2EAA1BBB1BFD0182
:100870000DC0AA1FBB1FEE1FFF1FA217B307E4077F
:10088000F50720F0A21BB30BE40BF50B661F771FD7
:10089000881F991F1A9469F76095709580959095B7
:0E08A0009B01AC01BD01CF010895F894FFCF7C
:1008AE0043414E2073656E7A6F720020004572725E
:1008BE002E20657869742072657365742E004578F4
:1008CE006974207273742E204F4B005265736574D9
:1008DE00206572726F72005265736574204F4B0003
:1008EE00426175642072617465206572722E0042D9
:1008FE006175642072617465204F4B005374642ED1
:10090E00206D61736B204F4B00436F6E66696720DD
:04091E004F4B00003B
:00000001FF
