:100000000C942A000C9447000C9447000C94470071
:100010000C9447000C9447000C9447000C94470044
:100020000C9447000C9447000C9447000C94470034
:100030000C9447000C9447000C9447000C94470024
:100040000C9447000C9447000C9447000C94470014
:100050000C94470011241FBECFE5D4E0DEBFCDBF16
:1000600010E0A0E6B0E0EEEAFBE002C005900D92E1
:10007000AE36B107D9F710E0AEE6B0E001C01D9290
:10008000A538B107E1F70E9449000C94D5050C94FE
:1000900000000E94D6018CE00E94520180E060E6E0
:1000A00070E00E949B0180E492E4AFE0B0E08093B6
:1000B0007F0090938000A0938100B093820080E045
:1000C00094E2A4EFB0E080937B0090937C00A09337
:1000D0007D00B0937E0088E0809383008AE1809366
:1000E000840081E090E0909371008093700084E040
:1000F0008093720010926F00E3E7F0E080E081935C
:10010000865F8832E1F78BE790E00E94E3048093FA
:100110006E008FE690E00E9489020E943302FFCFBA
:10012000662349F1909A91988B9A8C9A8D9A8E9A1F
:10013000969895989498939887FD1FC086FD959AF8
:1001400085FD949A84FD939A929A00C0929896980D
:1001500095989498939883FD969A82FD959A81FD3F
:10016000949A80FD939A929A00C09298939A949A46
:10017000959A969A08959098D6CF969ADFCF88232D
:1001800009F1909A919A8B988C988D988E98929A62
:1001900000C0839B15C080E184998062859980644A
:1001A00086998068929800C0929A00C08399816075
:1001B0008499826085998460869988609298089570
:1001C00080E0EACF9098DECF80E00E94BF0087FDFC
:1001D000FBCF84E090E00197F1F780E00E94BF0040
:1001E00008951F93182F0E94E400812F60E00E9461
:1001F00090001F9108951F93182F0E94E400812FF3
:1002000061E00E9490001F910895662321F08054C0
:100210000E94F100089580580E94F10008950E9404
:10022000E40090E0089581E00E94F100089582E0EA
:100230000E94F10008951F93182F0E94E4001A30C5
:1002400039F4803458F080E80E94F1001F9108953D
:10025000812F61E00E9490001F91089580ECF4CFFF
:10026000CF93DF93FC018081882339F0EF010E9456
:100270001B01898121968823D1F7DF91CF910895C1
:10028000CF93DF93FC018491882349F0EF012196FD
:100290000E941B01FE01219684918823C9F7DF91FA
:1002A000CF9108951F93182F889A899A8A9A8B9ACA
:1002B0008C9A8D9A8E9A80E09DE70197F1F7949A37
:1002C000939A929A00C0929880E097E20197F1F792
:1002D000929A00C0929880E890E0FC013197F1F783
:1002E000929A00C09298FC013197F1F79398929AF4
:1002F00000C092980197F1F788E20E94F10088E02F
:100300000E94F1000E94130186E00E94F100812FFB
:100310000E94F1001F9108951F93682F80E00E94B2
:10032000050110E08BE690E00E9430011F5F103164
:10033000C9F71F910895FF920F931F93F82E8B0119
:100340000E948C0180E06F2D0E940501C8010E946F
:1003500030011F910F91FF900895EF92FF921F932C
:10036000DF93CF93CDB7DEB72B970FB6F894DEBFF0
:100370000FBECDBF182FDB01CA017E010894E11C1E
:10038000F11CB7014AE050E00E949005812FB701AF
:100390000E949B012B960FB6F894DEBF0FBECDBF17
:1003A000CF91DF911F91FF90EF9008958FEF84BB65
:1003B0008AB3806F8ABBBA98C29A8BB780628BBFB0
:1003C0000895DF98DD9ADC9ADE9ADF9A9FEF94BB5E
:1003D00085BB82E0282F2A95F1F7DF98282F2A95F0
:1003E000F1F7DE98DD9895BB14BA8A95F1F783B3DF
:1003F000DD9ADE9A0895DF98DD9ADC9ADE9ADF9A1C
:100400002FEF24BB65BB92E0392F3A95F1F7DF98C7
:10041000392F3A95F1F7DE98DC9824BB85BB892FFC
:100420008A95F1F7DC9ADE9A9A95F1F708958BB7E1
:1004300080628BBF08958BB78F7D8BBF089580E05E
:100440000E94E1018E71816060E00E94FB0180E00A
:1004500090E0089580E00E94E1018E7160E00E94CA
:10046000FB0180E0089581E061E00E94FB0180E0F3
:1004700008951F93CF93DF9380E00E94E10180FFF6
:100480001AC010E0C8ECD0E002C0133379F080E06D
:1004900060E00E94FB01CE010197F1F71F5F80E051
:1004A0000E94E10180FDF1CF1A3028F08FEFDF913B
:1004B000CF911F9108950E94170280E0DF91CF91A4
:1004C0001F9108951F93CF93DF930E941B0280E03A
:1004D0000E94E10180FD18C010E0C8ECD0E081E08E
:1004E00060E00E94FB01CE010197F1F71F5F80E001
:1004F0000E94E10180FD06C01B3089F70E941702AF
:100500008FEF03C01A30D0F780E0DF91CF911F91B9
:100510000895DF92EF92FF920F931F93CF93DF9393
:10052000EC0110E00AE104C01F5F802F8A95F1F70B
:1005300082E00E94E10182FD02C01A30A9F787FD26
:1005400083C082E00E94E10182FF8EC0DB8088E0F0
:100550008D1508F471C08881982F80E092FD80E8A5
:1005600090FD3CC090E08D29892B60E10E94FB0149
:10057000888182FF3CC0E980FA80EE0CFF1CEE0C03
:10058000FF1CEE0CFF1C00E010E08E2D64E10E94C9
:10059000FB01EF2CF02E012F11278E2D63E10E941D
:1005A000FB0180E062E10E94FB0180E061E10E94CA
:1005B000FB01DD2051F010E01B5E8C81612F0E9459
:1005C000FB01145121961D15B8F380E0DF91CF9106
:1005D0001F910F91FF90EF90DF90089590E48D2987
:1005E000892B60E10E94FB01888182FDC4CFE980F4
:1005F000FA80EE0CFF1CE294F29490EFF922FE24B4
:10060000E922FE2400E010E0BB27A12F902F8F2DC0
:1006100061E10E94FB018E2D62E10E94FB01DD2061
:10062000A1F210E01D5E8C81612F0E94FB0112512E
:1006300021961D15B8F3C9CF48E0D42E8881982F94
:1006400080E092FF8DCF8BCF0E94620280E06EE04F
:100650000E94FB0180E06FE00E94FB018CE00E94A1
:10066000E1010E9439026DCF82E061E00E94FB014E
:1006700010E00AE104C01F5F802F8A95F1F782E045
:100680000E94E10182FD02C01A30A9F782E00E94B7
:10069000E10182FD5BCF8FEF99CF2F923F924F9276
:1006A0005F926F927F928F929F92AF92BF92CF9202
:1006B000DF92EF92FF920F931F93DF93CF93CDB70B
:1006C000DEB767970FB6F894DEBF0FBECDBF698B5C
:1006D0007A8B8B8B9C8B49015A010D8BEE8ACF8ACA
:1006E0000E946202882309F031C1A5019401569548
:1006F00047953795279529873A874B875C8780E010
:100700009AECAAE9BBE38D879E87AF87B88B1D82E1
:100710001E821F82188619821A821B821C82E4E0C4
:10072000EE2EF12C012D112D38C0CA01B901A40102
:1007300093010E944F059B01AC0169857A858B85E9
:100740009C850E946E0589899A89AB89BC89821B28
:10075000930BA40BB50B2D853E854F855889281723
:1007600039074A075B0708F44DC08D879E87AF871E
:10077000B88B0894E11CF11C011D111D32E3E31636
:10078000F1040105110509F446C0AD82BE82CF8295
:10079000D88629823A824B825C8257016801D694BE
:1007A000C794B794A794350146010894611C711C45
:1007B000811C911CC401B30129893A894B895C8948
:1007C0000E944F059B01AC0169857A858B859C85CC
:1007D0000E946E05D801C70181709070A070B07042
:1007E000280F391F4A1F5B1F19012A01089421088D
:1007F00031084108510890E429163104410451049C
:1008000008F493CFAD80BE80CF80D88429803A8011
:100810004B805C80AECF8D859E85AF85B889009773
:10082000A105B10509F082C0C601B5016F5F7F4F18
:100830008F4F9F4FAE892A2F30E040E050E00E945A
:100840004F0524E630E040E050E00E946E0535019F
:100850004601621A730A840A950AB8E06B1671049D
:100860008104910408F05CC02EEF3FEF4FEF5FEF83
:10087000A20EB31EC41ED51ED601C5018619970946
:10088000A809B90922E030E040E050E0A20EB31E12
:10089000C41ED51E80319105A105B10598F5182F0C
:1008A0003D893295330F330F307C832F822966E0E8
:1008B0000E94FB014F8941FD4BC090E0862D82953F
:1008C000807F812B892B67E00E94FB010E94390207
:1008D00080E067960FB6F894DEBF0FBECDBFCF9114
:1008E000DF911F910F91FF90EF90DF90CF90BF901D
:1008F000AF909F908F907F906F905F904F903F90C0
:100900002F9008955FEE652E5FEF752E5FEF852EB9
:100910005FEF952E6A0C7B1C8C1C9D1C1FE0C0CFCA
:1009200067E0662E712C812C912C9ECF69897A8983
:100930008B899C892D853E854F8558890E946E053F
:100940002A3031054105510508F06ECF8FEFC1CF38
:1009500090E8B4CF9F92AF92BF92CF92DF92EF9286
:10096000FF920F931F935B016C0179018A010E9432
:100970006202882331F583E1982E8A2D692D0E9429
:10098000FB0184E0980E8E2D692D0E94FB01AB2C9B
:10099000BC2CCD2CDD24EF2CF02E012F11278BEF5A
:1009A000980E8FE0981649F70E94390280E01F9157
:1009B0000F91FF90EF90DF90CF90BF90AF909F90FE
:1009C00008958FEFF4CFCF92EF920F931F93CF93B1
:1009D000DF93EC010E946202882341F08FEFDF91E8
:1009E000CF911F910F91EF90CF90089588858068E7
:1009F0006FE10E94FB0180E064E00E94FB018985B9
:100A000068E00E94FB010AE510E1802F612F0E943F
:100A1000FB01015F1F5F023DC1F71AE500E101C064
:100A2000115F802F0E94E1011817C1F60F5F133C80
:100A3000B9F760E070E080E090E02FEF3FEF4FEF1C
:100A40005FE00E94AA04882349F66C817D818E8133
:100A50009F81611571058105910561F480E492E43F
:100A6000AFE0B0E08C839D83AE83BF8360E472E42B
:100A70008FE090E0288139814A815B8100E0EBE4DE
:100A8000EE2ECC240E944D03882309F0A7CF8FEAD5
:100A900064E00E94FB010E94390280E0A0CF629FC7
:100AA000D001739FF001829FE00DF11D649FE00D66
:100AB000F11D929FF00D839FF00D749FF00D659FC7
:100AC000F00D9927729FB00DE11DF91F639FB00DC6
:100AD000E11DF91FBD01CF0111240895A1E21A2ED5
:100AE000AA1BBB1BFD010DC0AA1FBB1FEE1FFF1FD2
:100AF000A217B307E407F50720F0A21BB30BE40B22
:100B0000F50B661F771F881F991F1A9469F7609568
:100B10007095809590959B01AC01BD01CF01089522
:100B2000FB019F01E8944230C4F04532B4F44A30EE
:100B300029F497FB1EF4909581959F4F642F77279A
:100B40000E94C105805D8A330CF0895D8193CB01E1
:100B50000097A1F716F45DE251931082C9010C943D
:100B6000B105DC01FC01672F71917723E1F7329722
:100B700004C07C916D9370836291AE17BF07C8F378
:100B80000895AA1BBB1B51E107C0AA1FBB1FA617D4
:100B9000B70710F0A61BB70B881F991F5A95A9F726
:0E0BA00080959095BC01CD010895F894FFCF8B
:0E0BAE0043414E2073656E7A6F720020000086
:00000001FF
