:100000000C942A000C9447000C9447000C94470071
:100010000C9447000C9447000C9447000C94470044
:100020000C9447000C9447000C9447000C94470034
:100030000C9447000C9447000C9447000C94470024
:100040000C9447000C9447000C9447000C94470014
:100050000C94470011241FBECFE5D4E0DEBFCDBF16
:1000600010E0A0E6B0E0E4EAF9E002C005900D92ED
:10007000A837B107D9F710E0A8E7B0E001C01D929A
:10008000A238B107E1F70E9449000C94D0040C9407
:1000900000000E94B90178948CE00E94390180E050
:1000A00060E670E00E94820180E492E4AFE0B0E09C
:1000B00080937C0090937D00A0937E00B0937F009E
:1000C00080E094E2A4EFB0E0809378009093790010
:1000D000A0937A00B0937B0088E0809380008AE14F
:1000E0008093810088E790E00E94E703FFCF6623BA
:1000F00049F1909A91988B9A8C9A8D9A8E9A9698AB
:1001000095989498939887FD1FC086FD959A85FDD4
:10011000949A84FD939A929A00C092989698959892
:100120009498939883FD969A82FD959A81FD949A6E
:1001300080FD939A929A00C09298939A949A959A75
:10014000969A08959098D6CF969ADFCF882309F192
:10015000909A919A8B988C988D988E98929A00C0CC
:10016000839B15C080E1849980628599806486991B
:100170008068929800C0929A00C0839981608499A7
:10018000826085998460869988609298089580E05D
:10019000EACF9098DECF80E00E94A60087FDFBCFDB
:1001A00084E090E00197F1F780E00E94A6000895B6
:1001B0001F93182F0E94CB00812F60E00E947700D0
:1001C0001F9108951F93182F0E94CB00812F61E08B
:1001D0000E9477001F910895662321F080540E94A9
:1001E000D800089580580E94D80008950E94CB003E
:1001F00090E0089581E00E94D800089582E00E9476
:10020000D80008951F93182F0E94CB001A3039F49C
:10021000803458F080E80E94D8001F910895812F03
:1002200061E00E9477001F91089580ECF4CFCF9396
:10023000DF93FC018081882339F0EF010E940201E5
:10024000898121968823D1F7DF91CF910895CF93AB
:10025000DF93FC018491882349F0EF0121960E94ED
:100260000201FE01219684918823C9F7DF91CF9185
:1002700008951F93182F889A899A8A9A8B9A8C9A34
:100280008D9A8E9A80E09DE70197F1F7949A939A60
:10029000929A00C0929880E097E20197F1F7929AC3
:1002A00000C0929880E890E0FC013197F1F7929AB3
:1002B00000C09298FC013197F1F79398929A00C090
:1002C00092980197F1F788E20E94D80088E00E9496
:1002D000D8000E94FA0086E00E94D800812F0E9478
:1002E000D8001F9108951F93682F80E00E94EC00B2
:1002F00010E08BE690E00E9417011F5F1031C9F7F4
:100300001F910895FF920F931F93F82E8B010E9467
:10031000730180E06F2D0E94EC00C8010E9417015C
:100320001F910F91FF9008950F931F93DF93CF9329
:10033000CDB7DEB72B970FB6F894DEBF0FBECDBF9B
:10034000DC01CB018E010F5F1F4FB8014AE050E086
:100350000E948B0481E0B8010E9482012B960FB6A7
:10036000F894DEBF0FBECDBFCF91DF911F910F91EB
:1003700008958FEF84BB8AB3806F8ABBBA98C29A04
:100380008BB780628BBF0895DF98DD9ADC9ADE9A86
:10039000DF9A9FEF94BB85BB82E0982F9A95F1F787
:1003A000DF98982F9A95F1F7DE98DD9814BA8A9520
:1003B000F1F783B3DD9ADE9A0895DF98DD9ADC9A2F
:1003C000DE9ADF9A2FEF24BB65BB92E0392F3A9576
:1003D000F1F7DF98392F3A95F1F7DE98DC9824BBD6
:1003E00085BB892F8A95F1F7DC9ADE9A9A95F1F709
:1003F00008958BB780628BBF08958BB78F7D8BBFBD
:1004000008951F93CF93DF9380E00E94C40180FF83
:100410001AC010E0C8ECD0E002C0133379F080E0DD
:1004200060E00E94DD01CE010197F1F71F5F80E0DF
:100430000E94C40180FDF1CF1A3028F08FEFDF91C8
:10044000CF911F9108950E94F90180E0DF91CF9133
:100450001F9108951F93CF93DF930E94FD0180E0C9
:100460000E94C40180FD18C010E0C8ECD0E081E01B
:1004700060E00E94DD01CE010197F1F71F5F80E08F
:100480000E94C40180FD06C01B3089F70E94F9015B
:100490008FEF03C01A30D0F780E0DF91CF911F912A
:1004A00008952F923F924F925F926F927F928F9218
:1004B0009F92AF92BF92CF92DF92EF92FF920F93F3
:1004C0001F93DF93CF93CDB7DEB767970FB6F8943E
:1004D000DEBF0FBECDBF698B7A8B8B8B9C8B4901A6
:1004E0005A010D8BEE8ACF8A0E942A02882309F0D6
:1004F00031C1A501940156954795379527952987D0
:100500003A874B875C8780E09AECAAE9BBE38D874A
:100510009E87AF87B88B1D821E821F821886198224
:100520001A821B821C8234E0E32EF12C012D112D46
:1005300038C0CA01B901A40193010E944A049B0179
:10054000AC0169857A858B859C850E9469048989BF
:100550009A89AB89BC89821B930BA40BB50B2D85A3
:100560003E854F855889281739074A075B0708F4E5
:100570004DC08D879E87AF87B88B0894E11CF11C16
:10058000011D111D32E3E316F1040105110509F403
:1005900046C0AD82BE82CF82D88629823A824B8203
:1005A0005C8257016801D694C794B794A79435012B
:1005B00046010894611C711C811C911CC401B3018B
:1005C00029893A894B895C890E944A049B01AC01C4
:1005D00069857A858B859C850E946904D801C7014D
:1005E00081709070A070B070280F391F4A1F5B1F78
:1005F00019012A010894210831084108510890E4A2
:10060000291631044104510408F493CFAD80BE8013
:10061000CF80D88429803A804B805C80AECF8D8596
:100620009E85AF85B8890097A105B10509F082C004
:10063000C601B5016F5F7F4F8F4F9F4FAE892A2F45
:1006400030E040E050E00E944A0424E630E040E020
:1006500050E00E94690435014601621A730A840A57
:10066000950AB8E06B1671048104910408F05CC02F
:100670002EEF3FEF4FEF5FEFA20EB31EC41ED51E4D
:10068000D601C50186199709A809B90922E030E009
:1006900040E050E0A20EB31EC41ED51E803191056D
:1006A000A105B10598F5182F3D893295330F330F09
:1006B000307C832F822966E00E94DD014F8941FD55
:1006C0004BC090E0862D8295807F812B892B67E03F
:1006D0000E94DD010E94010280E067960FB6F89447
:1006E000DEBF0FBECDBFCF91DF911F910F91FF9065
:1006F000EF90DF90CF90BF90AF909F908F907F90C2
:100700006F905F904F903F902F9008958FEE682EDE
:100710008FEF782E8FEF882E8FEF982E6A0C7B1C30
:100720008C1C9D1C1FE0C0CF97E0692E712C812C82
:10073000912C9ECF69897A898B899C892D853E85EC
:100740004F8558890E9469042A30310541055105B9
:1007500008F06ECF8FEFC1CF90E8B4CF9F92AF92E9
:10076000BF92CF92DF92EF92FF920F931F935B01A4
:100770006C0179018A010E942A02882331F5F3E194
:100780009F2E8A2D692D0E94DD0184E0980E8E2D0A
:10079000692D0E94DD01AB2CBC2CCD2CDD24EF2C6F
:1007A000F02E012F11278BEF980E8FE0981649F746
:1007B0000E94010280E01F910F91FF90EF90DF9067
:1007C000CF90BF90AF909F9008958FEFF4CFCF92CE
:1007D000EF920F93CF93DF93EC010E942A028823BC
:1007E00039F08FEFDF91CF910F91EF90CF90089577
:1007F000888580686FE10E94DD0180E064E00E94EE
:10080000DD01898568E00E94DD0160E070E080E044
:1008100090E02FEF3FEF4FEF5FE00E94AE038823A1
:1008200001F76C817D818E819F8161157105810544
:10083000910561F480E492E4AFE0B0E08C839D83A5
:10084000AE83BF8360E472E48FE090E02881398159
:100850004A815B8100E0ABE4EA2ECC240E94510285
:10086000882309F0BECF8FEA64E00E94DD010E9478
:10087000010281E06DE670E00E94820120E137E232
:1008800048EC50E0CA010197F1F721503040D1F710
:1008900080E0A8CF629FD001739FF001829FE00D9E
:1008A000F11D649FE00DF11D929FF00D839FF00DEF
:1008B000749FF00D659FF00D9927729FB00DE11D9B
:1008C000F91F639FB00DE11DF91FBD01CF01112478
:1008D0000895A1E21A2EAA1BBB1BFD010DC0AA1F81
:1008E000BB1FEE1FFF1FA217B307E407F50720F099
:1008F000A21BB30BE40BF50B661F771F881F991F14
:100900001A9469F760957095809590959B01AC015C
:10091000BD01CF010895FB019F01E8944230C4F06E
:100920004532B4F44A3029F497FB1EF49095819532
:100930009F4F642F77270E94BC04805D8A330CF0A0
:10094000895D8193CB010097A1F716F45DE2519385
:100950001082C9010C94AC04DC01FC01672F719179
:100960007723E1F7329704C07C916D937083629195
:10097000AE17BF07C8F30895AA1BBB1B51E107C000
:10098000AA1FBB1FA617B70710F0A61BB70B881F1F
:10099000991F5A95A9F780959095BC01CD010895AE
:0409A000F894FFCFF9
:1009A40043414E2073656E7A6F72002000436F6E70
:0809B400666967204F4B00004B
:00000001FF
