:100000000C942A000C9447000C9447000C94470071
:100010000C9447000C9447000C9447000C94470044
:100020000C9447000C9447000C9447000C94470034
:100030000C9447000C9447000C9447000C94470024
:100040000C9447000C9447000C9447000C947C01DE
:100050000C94470011241FBECFE5D4E0DEBFCDBF16
:1000600010E0A0E6B0E0E0E6F3E002C005900D92FB
:10007000AE37B107D9F710E0AEE7B0E001C01D928E
:10008000A038B107E1F70E9449000C94AE010C942E
:1000900000008CE00E943401789480E060E670E01B
:1000A0000E9410010E946E01FDCF662349F1909AD3
:1000B00091988B9A8C9A8D9A8E9A969895989498F6
:1000C000939887FD1FC086FD959A85FD949A84FDBF
:1000D000939A929A00C0929896989598949893982B
:1000E00083FD969A82FD959A81FD949A80FD939A5C
:1000F000929A00C09298939A949A959A969A089593
:100100009098D6CF969ADFCF882309F1909A919A4A
:100110008B988C988D988E98929A00C0839B15C06E
:1001200080E184998062859980648699806892983C
:1001300000C0929A00C083998160849982608599F9
:100140008460869988609298089580E0EACF9098BC
:10015000DECF80E00E94840087FDFBCF84E090E04A
:100160000197F1F780E00E94840008951F93182FF3
:100170000E94A900812F60E00E9455001F91089500
:100180001F93182F0E94A900812F61E00E94550043
:100190001F910895662321F080540E94B6000895AF
:1001A00080580E94B60008950E94A90090E008952A
:1001B00081E00E94B600089582E00E94B600089592
:1001C0001F93182F0E94A9001A3039F4803458F078
:1001D00080E80E94B6001F910895812F61E00E947F
:1001E00055001F91089580ECF4CFCF93DF93FC016D
:1001F0008081882339F0EF010E94E00089812196F7
:100200008823D1F7DF91CF910895682F80E00E9475
:10021000CA0080917C0090917D000E94F5000895B5
:10022000FF920F931F93F82E8B010E94050180E02F
:100230006F2D0E94CA00C8010E94F5001F910F9106
:10024000FF900895CF93DF93FC018491882349F0B8
:10025000EF0121960E94E000FE01219684918823FF
:10026000C9F7DF91CF9108951F93182F889A899A23
:100270008A9A8B9A8C9A8D9A8E9A80E09DE7019744
:10028000F1F7949A939A929A00C0929880E097E23C
:100290000197F1F7929A00C0929880E890E0FC01F3
:1002A0003197F1F7929A00C09298FC013197F1F7DB
:1002B0009398929A00C092980197F1F788E20E9471
:1002C000B60088E00E94B6000E94D80086E00E9436
:1002D000B600812F0E94B6001F9108958AB3806FE7
:1002E0008ABBDF9A8AE18A95F1F7DF9888EC90E083
:1002F0000197F1F780E008951F920F920FB60F92C9
:1003000011248F939F9380917E0090917F0001969E
:1003100090937F0080937E009F918F910F900FBEEE
:100320000F901F9018959C0112BE88EC8CBF89B766
:10033000826089BF83B7896083BF80917E0090917E
:100340007F0082179307C8F383B7887F83BF10921B
:100350007F0010927E00089508950895F894FFCFCD
:1003600043414E2073656E7A6F720020202020205A
:0E0370002020202020202020202020006B00B4
:00000001FF
