:100000000C942A000C9449000C9447000C9447006F
:100010000C9447000C9447000C9447000C94470044
:100020000C9447000C9453000C9447000C94470028
:100030000C9447000C9447000C9447000C94470024
:100040000C9447000C9447000C9447000C94470014
:100050000C94470011241FBECFE5D4E0DEBFCDBF16
:1000600010E0A0E6B0E0E2E2F3E002C005900D92FD
:10007000AE37B107D9F710E0AEE7B0E001C01D928E
:10008000AE37B107E1F70E9460000C948F010C9429
:1000900000001F920F920FB60F9211240F900FBE07
:1000A0000F901F9018951F920F920FB60F92112468
:1000B0000F900FBE0F901F9018958FEF81BB089582
:1000C0008FEF81BB8CE00E944D010E9487017894E4
:1000D00080E060E670E00E942901FFCF662349F1CD
:1000E000909A91988B9A8C9A8D9A8E9A96989598C8
:1000F0009498939887FD1FC086FD959A85FD949AE4
:1001000084FD939A929A00C09298969895989498A4
:10011000939883FD969A82FD959A81FD949A80FD2D
:10012000939A929A00C09298939A949A959A969AD2
:1001300008959098D6CF969ADFCF882309F1909AA8
:10014000919A8B988C988D988E98929A00C0839BE8
:1001500015C080E184998062859980648699806861
:10016000929800C0929A00C08399816084998260BD
:1001700085998460869988609298089580E0EACF96
:100180009098DECF80E00E949D0087FDFBCF84E049
:1001900090E00197F1F780E00E949D0008951F9381
:1001A000182F0E94C200812F60E00E946E001F91F4
:1001B00008951F93182F0E94C200812F61E00E94B2
:1001C0006E001F910895662321F080540E94CF0095
:1001D000089580580E94CF0008950E94C20090E0C8
:1001E000089581E00E94CF00089582E00E94CF0030
:1001F00008951F93182F0E94C2001A3039F48034DA
:1002000058F080E80E94CF001F910895812F61E08F
:100210000E946E001F91089580ECF4CFCF93DF937E
:10022000FC018081882339F0EF010E94F900898167
:1002300021968823D1F7DF91CF910895682F80E030
:100240000E94E30080917C0090917D000E940E014D
:100250000895FF920F931F93F82E8B010E941E01A9
:1002600080E06F2D0E94E300C8010E940E011F91E3
:100270000F91FF900895CF93DF93FC018491882321
:1002800049F0EF0121960E94F900FE012196849128
:100290008823C9F7DF91CF9108951F93182F889A6B
:1002A000899A8A9A8B9A8C9A8D9A8E9A80E09DE789
:1002B0000197F1F7949A939A929A00C0929880E0ED
:1002C00097E20197F1F7929A00C0929880E890E047
:1002D000FC013197F1F7929A00C09298FC01319796
:1002E000F1F79398929A00C092980197F1F788E2FB
:1002F0000E94CF0088E00E94CF000E94F10086E0BB
:100300000E94CF00812F0E94CF001F9108958AB3D1
:10031000806F8ABB80E00895089508950895F89449
:02032000FFCF0D
:1003220043414E2073656E7A6F7200202020202098
:0E0332002020202020202020202020006B00F2
:00000001FF
