:100000000C942A000C94B6000C9447000C94470002
:100010000C9447000C9447000C9447000C94470044
:100020000C9447000C9447000C9447000C94470034
:100030000C9447000C9447000C9447000C94470024
:100040000C9447000C9447000C9447000C94470014
:100050000C94470011241FBECFE5D4E0DEBFCDBF16
:1000600011E0A0E6B0E0E2E2FFE002C005900D92F0
:10007000AA35B107D9F711E0AAE5B1E001C01D9298
:10008000A238B107E1F70E9449000C948F070C9445
:1000900000000E94220278948CE00E949E0180E081
:1000A00060E670E00E94E70180E492E4AFE0B0E037
:1000B00080937C0190937D01A0937E01B0937F019A
:1000C00080E094E2A4EFB0E080937801909379010E
:1000D000A0937A01B0937B0128E0209380018AE10C
:1000E0008093810181E090E0A0E0B0E080935C012A
:1000F00090935D01A0935E01B0935F012093600136
:1001000084E080935B01E1E6F1E080E08193865F2B
:100110008035E1F787E791E00E947D068823F9F0BA
:1001200081E06BE670E00E94E70120E137E248ECF5
:1001300050E0CA010197F1F721503040D1F781E03A
:1001400069E770E00E94E70120E137E248EC50E007
:10015000CA010197F1F721503040D1F7FFCF8BE56D
:1001600091E00E94FE030E946D02FFCF1F920F924A
:100170000FB60F9211242F933F934F935F936F937A
:100180007F938F939F93AF93BF93EF93FF9389E6F2
:1001900091E00E940403FF91EF91BF91AF919F9175
:1001A0008F917F916F915F914F913F912F910F9020
:1001B0000FBE0F901F901895662349F1C09AC19801
:1001C0008B9A8C9A8D9A8E9A9698959894989398E3
:1001D00087FD1FC086FD959A85FD949A84FD939AAC
:1001E000C29A00C0C298969895989498939883FD67
:1001F000969A82FD959A81FD949A80FD939AC29A6F
:1002000000C0C298939A949A959A969A0895C09825
:10021000D6CF969ADFCF882309F1C09AC19A8B98DE
:100220008C988D988E98C29A00C0839B15C080E1EF
:10023000849980628599806486998068C29800C09C
:10024000C29A00C083998160849982608599846094
:1002500086998860C298089580E0EACFC098DECF82
:1002600080E00E940B0187FDFBCF84E090E00197C6
:10027000F1F780E00E940B0108951F93182F0E9450
:100280003001812F60E00E94DC001F9108951F93D0
:10029000182F0E943001812F61E00E94DC001F9125
:1002A0000895662321F080540E943D0108958058EE
:1002B0000E943D0108950E94300190E0089581E080
:1002C0000E943D01089582E00E943D0108951F9320
:1002D000182F0E9430011A3039F4803458F080E829
:1002E0000E943D011F910895812F61E00E94DC0072
:1002F0001F91089580ECF4CFCF93DF93FC018081B0
:10030000882339F0EF010E946701898121968823B3
:10031000D1F7DF91CF910895CF93DF93FC018491C2
:10032000882349F0EF0121960E946701FE01219682
:1003300084918823C9F7DF91CF9108951F93182FD7
:10034000B89AB99ABA9A8B9A8C9A8D9A8E9A80E0BA
:100350009DE70197F1F7949A939AC29A00C0C298C8
:1003600080E097E20197F1F7C29A00C0C29880E856
:1003700090E0FC013197F1F7C29A00C0C298FC01ED
:100380003197F1F79398C29A00C0C2980197F1F79C
:1003900088E20E943D0188E00E943D010E945F01C9
:1003A00086E00E943D01812F0E943D011F9108952A
:1003B0001F93682F80E00E94510110E087E890E0D1
:1003C0000E947C011F5F1031C9F71F910895FF92B1
:1003D0000F931F93F82E8B010E94D80180E06F2DA0
:1003E0000E945101C8010E947C011F910F91FF9052
:1003F0000895EF92FF921F93DF93CF93CDB7DEB7AF
:100400002B970FB6F894DEBF0FBECDBF182FDB01C0
:10041000CA017E010894E11CF11CB7014AE050E0DA
:100420000E944A07812FB7010E94E7012B960FB661
:10043000F894DEBF0FBECDBFCF91DF911F91FF902B
:10044000EF9008958FEF84BB8AB3806F8ABB8A9840
:10045000929A85B785BF8BB780648BBF0895DF986C
:10046000DD9ADC9ADE9ADF9A9FEF94BB85BB82E02F
:10047000282F2A95F1F7DF98282F2A95F1F7DE9893
:10048000DD9895BB14BA8A95F1F783B3DD9ADE9AAD
:100490000895DF98DD9ADC9ADE9ADF9A2FEF24BB6D
:1004A00065BB92E0392F3A95F1F7DF98392F3A95ED
:1004B000F1F7DE98DC9824BB85BB892F8A95F1F78C
:1004C000DC9ADE9A9A95F1F708958BB780648BBF1A
:1004D00008958BB78F7B8BBF089581E061E00E9408
:1004E000490280E008958F929F92AF92BF92CF927F
:1004F000DF92EF92FF920F931F93CF93DF93EC0164
:1005000080E10E942F02982E81E10E942F02B82ED6
:10051000BB0CBB0CAA24CC24B7FCC094DC2C82E11D
:100520000E942F02882E83E10E942F02E82E84E190
:100530000E942F02382D3295330F307E20E0442761
:1005400037FD4095542FFF24EE0CFF1CE294F294EB
:1005500070EFF722FE24E722FE240027F7FC009527
:10056000102F2E0D3F1D401F511F86958695869595
:10057000280F311D411D511D6BE0AA0CBB1CCC1C6A
:10058000DD1C6A95D1F72A0D3B1D4C1D5D1D29838D
:100590003A834B835C83292D221F2227221F220F9F
:1005A000220F892D90E00024880F991F001C880FCE
:1005B000991F001C892F902D8170282B28838FE094
:1005C00098229D82092D0930E0F008E010E0812F8B
:1005D0008B5E0E942F028E831F5F21961017B8F347
:1005E00084E061E00E944902DF91CF911F910F9159
:1005F000FF90EF90DF90CF90BF90AF909F908F9043
:100600000895992019F7ECCF0F931F93CF93DF93A1
:10061000EC0183E00E942F02182F80E069E870E06F
:100620000E94E701412F50E060E070E081E00E940D
:10063000F90120E137E248EC50E0CA010197F1F7F7
:1006400021503040D1F7812F8F7AA9F481E063E9FE
:1006500070E00E94E70120E137E248EC50E0CA0177
:100660000197F1F721503040D1F780E0DF91CF9131
:100670001F910F91089582E00E942F02082F80FDA4
:100680000AC01C7A11F007FD1BC081E0DF91CF91F9
:100690001F910F91089581E062EA70E00E94E701E6
:1006A00020E137E248EC50E0CA010197F1F7215010
:1006B0003040D1F7CE010E9473021C7A21F7E5CFBA
:1006C00081E061EB70E00E94E70120E137E248EC55
:1006D00050E0CA010197F1F721503040D1F781E095
:1006E00069EB70E00E94E70120E137E248EC50E05E
:1006F000CA010197F1F721503040D1F780E060E066
:100700000E94490281E0B2CF1F93CF93DF9380E034
:100710000E942F0280FF15C010E0C8ECD0E002C09C
:100720001333B1F080E060E00E944902CE010197EE
:10073000F1F71F5F80E00E942F0280FDF1CF1A3099
:1007400038F40E94650280E0DF91CF911F910895F7
:1007500081E068EC70E00E94E70120E137E248ECBC
:1007600050E0CA010197F1F721503040D1F78FEFE7
:10077000EBCF1F93CF93DF930E94690280E00E942A
:100780002F0280FD27C010E0C8ECD0E081E060E0DF
:100790000E944902CE010197F1F71F5F80E00E949D
:1007A0002F0280FD15C01B3089F781E068ED70E0F5
:1007B0000E94E70120E137E248EC50E0CA010197CE
:1007C000F1F721503040D1F70E9465028FEF12C03F
:1007D0001A3058F781E069EE70E00E94E70120E1ED
:1007E00037E248EC50E0CA010197F1F72150304060
:1007F000D1F780E0DF91CF911F910895DF92EF92C2
:10080000FF920F931F93CF93DF93EC0110E00AE167
:1008100004C01F5F802F8A95F1F782E00E942F02AB
:1008200082FD02C01A30A9F787FD94C082E00E94C1
:100830002F0282FF58C0DD8088E08D1510F498E00B
:10084000D92E8D2D806860E10E944902E980FA80EE
:100850000B811C81EE0CFF1C001F111FEE0CFF1CF6
:10086000001F111FEE0CFF1C001F111F8E2D64E1D5
:100870000E944902BB27A12F902F8F2D63E10E9478
:100880004902C801AA27BB2762E10E944902E12E62
:10089000FF24002711278E2D61E10E944902DD20EF
:1008A00051F010E01B5E8E81612F0E9449021451AD
:1008B00021961D15B8F381E062E271E00E94E70124
:1008C00020E137E248EC50E0CA010197F1F72150EE
:1008D0003040D1F780E0DF91CF911F910F91FF90D1
:1008E000EF90DF90089581E066E071E00E94E701FB
:1008F00020E137E248EC50E0CA010197F1F72150BE
:100900003040D1F782E061E00E94490210E00AE144
:1009100004C01F5F802F8A95F1F782E00E942F02AA
:1009200082FD02C01A30A9F782E00E942F0282FDE8
:1009300082CF81E063E171E00E94E70120E137E2CC
:1009400048EC50E0CA010197F1F721503040D1F74F
:100950008FEFC1CF81E067EF70E00E94E70120E1F7
:1009600037E248EC50E0CA010197F1F721503040DE
:10097000D1F70E94B90380E06EE00E94490280E056
:100980006FE00E9449028CE00E942F020E948403C3
:100990004DCF2F923F924F925F926F927F928F92A4
:1009A0009F92AF92BF92CF92DF92EF92FF920F93FE
:1009B0001F93DF93CF93CDB7DEB767970FB6F89449
:1009C000DEBF0FBECDBF698B7A8B8B8B9C8B4901B1
:1009D0005A010D8BEE8ACF8A0E94B903882309F051
:1009E0004FC1A501940156954795379527952987BD
:1009F0003A874B875C8780E09AECAAE9BBE38D8756
:100A00009E87AF87B88B1D821E821F82188619822F
:100A10001A821B821C8254E0E52EF12C012D112D2F
:100A200038C0CA01B901A40193010E9409079B01C2
:100A3000AC0169857A858B859C850E942807898908
:100A40009A89AB89BC89821B930BA40BB50B2D85AE
:100A50003E854F855889281739074A075B0708F4F0
:100A60004DC08D879E87AF87B88B0894E11CF11C21
:100A7000011D111D32E3E316F1040105110509F40E
:100A800046C0AD82BE82CF82D88629823A824B820E
:100A90005C8257016801D694C794B794A794350136
:100AA00046010894611C711C811C911CC401B30196
:100AB00029893A894B895C890E9409079B01AC010D
:100AC00069857A858B859C850E942807D801C70196
:100AD00081709070A070B070280F391F4A1F5B1F83
:100AE00019012A010894210831084108510890E4AD
:100AF000291631044104510408F493CFAD80BE801F
:100B0000CF80D88429803A804B805C80AECF8D85A1
:100B10009E85AF85B8890097A105B10581F06989E7
:100B20007A898B899C892D853E854F8558890E94BD
:100B300028072A3031054105510508F492C0C60145
:100B4000B5016F5F7F4F8F4F9F4FAE892A2F30E0E7
:100B500040E050E00E94090724E630E040E050E029
:100B60000E94280735014601621A730A840A950A11
:100B7000B8E06B1671048104910408F06CC02EEF8C
:100B80003FEF4FEF5FEFA20EB31EC41ED51ED6017E
:100B9000C50186199709A809B90922E030E040E0AB
:100BA00050E0A20EB31EC41ED51E80319105A105D2
:100BB000B10508F042C0182F3D893295330F330F2D
:100BC000307C832F822966E00E9449024F8941FDD3
:100BD00059C090E0862D8295807F812B892B67E01C
:100BE0000E9449020E94840381E065E371E00E9453
:100BF000E70120E137E248EC50E0CA010197F1F744
:100C000021503040D1F780E067960FB6F894DEBFF0
:100C10000FBECDBFCF91DF911F910F91FF90EF904D
:100C2000DF90CF90BF90AF909F908F907F906F900C
:100C30005F904F903F902F9008952FEE622E2FEFF0
:100C4000722E2FEF822E2FEF922E6A0C7B1C8C1CA3
:100C50009D1C1FE0B1CF37E0632E712C812C912CAD
:100C60008ECF81E065E271E00E94E70120E137E28A
:100C700048EC50E0CA010197F1F721503040D1F71C
:100C80008FEFC2CF90E8A6CF9F92AF92BF92CF9244
:100C9000DF92EF92FF920F931F935B016C0179013A
:100CA0008A010E94B903882331F5F3E19F2E8A2D32
:100CB000692D0E94490284E0980E8E2D692D0E94B4
:100CC0004902AB2CBC2CCD2CDD24EF2CF02E012FB7
:100CD00011278BEF980E8FE0981649F70E94840336
:100CE00080E01F910F91FF90EF90DF90CF90BF9029
:100CF000AF909F9008958FEFF4CFCF92EF920F9324
:100D00001F93CF93DF93EC010E94B903882341F036
:100D10008FEFDF91CF911F910F91EF90CF900895BA
:100D2000898580686FE10E94490280E064E00E944A
:100D300049028A8568E00E9449020AE510E1802F95
:100D4000612F0E944902015F1F5F023DC1F71AE552
:100D500000E101C0115F802F0E942F02181709F0D7
:100D600048C00F5F133CB1F760E070E080E090E0B6
:100D70002FEF3FEF4FEF5FE00E944406882341F6DC
:100D80006D817E818F819885611571058105910541
:100D900061F480E492E4AFE0B0E08D839E83AF83A2
:100DA000B88760E472E48FE090E029813A814B815A
:100DB0005C8100E0ABE4EA2ECC240E94C9048823C5
:100DC00009F0A6CF8FEA64E00E9449020E948403E2
:100DD00081E06FE471E00E94E70120E137E248EC36
:100DE00050E0CA010197F1F721503040D1F780E07F
:100DF00090CF81E062E471E00E94E70120E137E2F8
:100E000048EC50E0CA010197F1F721503040D1F78A
:100E10007FCF629FD001739FF001829FE00DF11D93
:100E2000649FE00DF11D929FF00D839FF00D749F64
:100E3000F00D659FF00D9927729FB00DE11DF91F10
:100E4000639FB00DE11DF91FBD01CF01112408956D
:100E5000A1E21A2EAA1BBB1BFD010DC0AA1FBB1FBE
:100E6000EE1FFF1FA217B307E407F50720F0A21B30
:100E7000B30BE40BF50B661F771F881F991F1A949D
:100E800069F760957095809590959B01AC01BD01C7
:100E9000CF010895FB019F01E8944230C4F0453230
:100EA000B4F44A3029F497FB1EF4909581959F4F36
:100EB000642F77270E947B07805D8A330CF0895D61
:100EC0008193CB010097A1F716F45DE25193108254
:100ED000C9010C946B07DC01FC01672F719177232A
:100EE000E1F7329704C07C916D9370836291AE17E5
:100EF000BF07C8F30895AA1BBB1B51E107C0AA1F77
:100F0000BB1FA617B70710F0A61BB70B881F991FAA
:100F10005A95A9F780959095BC01CD010895F89454
:020F2000FFCF01
:100F220043414E2073656E7A6F7200436F6E66693D
:100F320067206572726F72210052657374617274F8
:100F4200696E672E2E2E002000496E7465727275CE
:100F52007074004E6F6E6520696E742E20666C612F
:100F620067004952513A205249206F72205242532F
:100F7200006275732D6F66660072657365747469BD
:100F82006E672063686970004572722E2065786909
:100F920074207265736574005265736574206D6F99
:100FA2006465206572726F72005265736574206D9C
:100FB2006F6465204F4B00427573207265636F76D4
:100FC2006572696E670054582074696D6564206F9C
:100FD2007574005478206572722E205265736574A0
:100FE2002100547800426175642072617465206545
:100FF20072726F7200426175642072617465204F73
:101002004B00436F6E666967206572726F720043B0
:0A1012006F6E666967204F4B000007
:00000001FF
