:100000000C942A000C94AC000C9447000C9447000C
:100010000C9447000C9447000C9447000C94470044
:100020000C9447000C9447000C9451090C94470021
:100030000C9447000C9447000C9447000C94470024
:100040000C947D060C9447000C9447000C944700D8
:100050000C94470011241FBECFE5D8E0DEBFCDBF12
:1000600011E0A0E6B0E0E0EDF4E102C005900D92F1
:10007000A43CB107D9F712E0A4ECB1E001C01D9295
:10008000A533B107E1F70E9449000C94660A0C946D
:100090000000EF92FF920F931F93E0901502F090F3
:1000A0001602009117021091180278940E947609A6
:1000B0008CE00E94940180E060E670E00E94DD0127
:1000C00088EE93E00E94800989E192E065E378E0A0
:1000D0000E94B50984E690E0A0E0B0E0E80EF91EC9
:1000E0000A1F1B1F8091150290911602A091170202
:1000F000B09118028E159F05A007B10768F4809192
:100100002D02813079F710922D028FE192E069E1A2
:1001100072E00E948007E6CFE0901502F090160290
:100120000091170210911802409115025091160289
:10013000609117027091180281E00E94EF0189E13D
:1001400092E00E94BE0984E690E0A0E0B0E0E80EF4
:10015000F91E0A1F1B1FD3CF1F920F920FB60F92CB
:1001600011242F933F934F935F936F937F938F93BC
:100170009F93AF93BF93EF93FF938FE192E00E9421
:10018000C102FF91EF91BF91AF919F918F917F91AC
:100190006F915F914F913F912F910F900FBE0F90F4
:1001A0001F901895662349F1C09AC1988B9A8C9A32
:1001B0008D9A8E9A969895989498939887FD1FC0DB
:1001C00086FD959A85FD949A84FD939AC29A00C003
:1001D000C298969895989498939883FD969A82FDE4
:1001E000959A81FD949A80FD939AC29A00C0C29814
:1001F000939A949A959A969A0895C098D6CF969A7B
:10020000DFCF882309F1C09AC19A8B988C988D987A
:100210008E98C29A00C0839B15C080E18499806249
:100220008599806486998068C29800C0C29A00C08F
:1002300083998160849982608599846086998860B9
:10024000C298089580E0EACFC098DECF80E00E9497
:10025000010187FDFBCF84E090E00197F1F780E09A
:100260000E94010108951F93182F0E942601812FDB
:1002700060E00E94D2001F9108951F93182F0E94E2
:100280002601812F61E00E94D2001F91089566230C
:1002900021F080540E943301089580580E94330158
:1002A00008950E94260190E0089581E00E943301A4
:1002B000089582E00E94330108951F93182F0E9431
:1002C00026011A3039F4803458F080E80E94330156
:1002D0001F910895812F61E00E94D2001F9108951F
:1002E00080ECF4CFCF93DF93FC018081882339F039
:1002F000EF010E945D01898121968823D1F7DF916A
:10030000CF910895CF93DF93FC018491882349F026
:10031000EF0121960E945D01FE01219684918823C0
:10032000C9F7DF91CF9108951F93182FB89AB99A02
:10033000BA9A8B9A8C9A8D9A8E9A80E09DE7019753
:10034000F1F7949A939AC29A00C0C29880E097E21B
:100350000197F1F7C29A00C0C29880E890E0FC01D2
:100360003197F1F7C29A00C0C298FC013197F1F7BA
:100370009398C29A00C0C2980197F1F788E20E9450
:10038000330188E00E9433010E94550186E00E94FB
:100390003301812F0E9433011F9108951F93682F0D
:1003A00080E00E94470110E08BE690E00E9472011D
:1003B0001F5F1031C9F71F910895FF920F931F938C
:1003C000F82E8B010E94CE0180E06F2D0E94470124
:1003D000C8010E9472011F910F91FF900895EF9242
:1003E000FF921F93DF93CF93CDB7DEB72B970FB656
:1003F000F894DEBF0FBECDBF182FCB01BA017E012E
:100400000894E11CF11CA7012AE030E00E94310AA7
:10041000812FB7010E94DD012B960FB6F894DEBF45
:100420000FBECDBFCF91DF911F91FF90EF90089548
:100430008FEF84BB8AB3806F8ABB8A98929A85B704
:1004400085BF8BB780648BBF0895DF98DD9ADC9AF7
:10045000DE9ADF9A9FEF94BB85BB82E0282F2A9516
:10046000F1F7DF98282F2A95F1F7DE98DD9895BBF4
:1004700014BA8A95F1F783B3DD9ADE9A0895DF986E
:10048000DD9ADC9ADE9ADF9A2FEF24BB65BB92E0FF
:10049000392F3A95F1F7DF98392F3A95F1F7DE9831
:1004A000DC9824BB85BB892F8A95F1F7DC9ADE9A0C
:1004B0009A95F1F708958BB780648BBF08958BB739
:1004C0008F7B8BBF089581E061E00E943F0280E056
:1004D0000895EF92FF920F931F93CF93DF937C01C8
:1004E00080E10E942502182F81E10E942502F70178
:1004F000818382E10E942502F701828383E10E94C9
:100500002502F701838384E10E9425028695869562
:100510008695F7018483212F221F2227221F220F75
:10052000220F812F90E00024880F991F001C880F54
:10053000991F001C892F902D8170282B20831F70FC
:100540001583012F1930D0F008E0E70110E0812F6A
:100550008B5E0E9425028E831F5F21961017B8F3D1
:1005600081E0F701868784E061E00E943F02DF912D
:10057000CF911F910F91FF90EF900895112329F7CC
:10058000EFCF0F931F93CF93DF93EC0180E06DE6E5
:1005900070E00E94DD0183E00E942502182F482FA1
:1005A00050E060E070E081E00E94EF0120E137E27E
:1005B00048EC50E0CA010197F1F721503040D1F7E3
:1005C000812F8F7AA1F467E770E00E94DD0120E1BE
:1005D00037E248EC50E0CA010197F1F72150304072
:1005E000D1F780E0DF91CF911F910F91089582E0C4
:1005F0000E942502082F80FD19C01C7A89F007FD92
:100600002AC080E064EB70E00E94DD0120E137E267
:1006100048EC50E0CA010197F1F721503040D1F782
:1006200081E0DF91CF911F910F91089580E068E8FC
:1006300070E00E94DD0120E137E248EC50E0CA01A1
:100640000197F1F721503040D1F7CE010E946902A5
:100650001C7AA9F6E5CF80E068E970E00E94DD0130
:1006600020E137E248EC50E0CA010197F1F7215050
:100670003040D1F780E064EA70E00E94DD0120E1C3
:1006800037E248EC50E0CA010197F1F721503040C1
:10069000D1F780E060E00E943F02B3CF1F93CF9379
:1006A000DF9380E00E94250280FF15C010E0C8ECB7
:1006B000D0E002C01333B1F080E060E00E943F025E
:1006C000CE010197F1F71F5F80E00E94250280FDB7
:1006D000F1CF1A3038F40E945B0280E0DF91CF91B5
:1006E0001F91089580E061EC70E00E94DD0188EECA
:1006F00093E00E9480098FEFF1CF1F93CF93DF9398
:100700000E945F0280E00E94250280FD21C010E06F
:10071000C8ECD0E081E060E00E943F02CE0101978A
:10072000F1F71F5F80E00E94250280FD0FC01B30A3
:1007300089F780E062ED70E00E94DD0188EE93E0D1
:100740000E9480090E945B028FEF0CC01A3088F76C
:1007500080E063EE70E00E94DD0188EE93E00E948D
:10076000800980E0DF91CF911F9108950F931F932F
:10077000CF93DF93EC0110E00AE104C01F5F802FEC
:100780008A95F1F782E00E94250282FD02C01A30AC
:10079000A9F787FD71C082E00E94250282FF38C060
:1007A0000D81093098F5802F806860E10E943F023A
:1007B0008C81880F880F880F64E10E943F028B8133
:1007C00063E10E943F028A8162E10E943F028981C7
:1007D00061E10E943F02002351F010E01B5E8E8118
:1007E000612F0E943F02145121961017B8F380E048
:1007F00061E371E00E94DD0188EE93E00E948009D0
:1008000080E0DF91CF911F910F91089508E0CBCF49
:1008100080E063E071E00E94DD0188EE93E00E94D9
:10082000800982E061E00E943F0210E00AE104C01A
:100830001F5F802F8A95F1F782E00E94250282FDDA
:1008400002C01A30A9F782E00E94250282FDA8CFDB
:1008500080E064E171E00E94DD0188EE93E00E9497
:10086000800980E061E271E00E94DD0188EE93E0A2
:100870000E9480098FEFC5CF80E063EF70E00E9497
:10088000DD0188EE93E00E9480090E947D0380E0F4
:100890006EE00E943F0280E06FE00E943F028CE029
:1008A0000E9425020E944E0376CF2F923F924F92D4
:1008B0005F926F927F928F929F92AF92BF92CF92F0
:1008C000DF92EF92FF920F931F93DF93CF93CDB7F9
:1008D000DEB767970FB6F894DEBF0FBECDBF698B4A
:1008E0007A8B8B8B9C8B49015A010D8BEE8ACF8AB8
:1008F0000E947D03882309F042C1A5019401569509
:1009000047953795279529873A874B875C8780E0FD
:100910009AECAAE9BBE38D879E87AF87B88B1D82CF
:100920001E821F82188619821A821B821C8274E022
:10093000E72EF12C012D112D38C0CA01B901A401F7
:1009400093010E94DC099B01AC0169857A858B8546
:100950009C850E940F0A89899A89AB89BC89821B70
:10096000930BA40BB50B2D853E854F855889281711
:1009700039074A075B0708F44DC08D879E87AF870C
:10098000B88B0894E11CF11C011D111D32E3E31624
:10099000F1040105110509F446C0AD82BE82CF8283
:1009A000D88629823A824B825C8257016801D694AC
:1009B000C794B794A794350146010894611C711C33
:1009C000811C911CC401B30129893A894B895C8936
:1009D0000E94DC099B01AC0169857A858B859C8529
:1009E0000E940F0AD801C70181709070A070B0708A
:1009F000280F391F4A1F5B1F19012A01089421087B
:100A000031084108510890E4291631044104510489
:100A100008F493CFAD80BE80CF80D88429803A80FF
:100A20004B805C80AECF8D859E85AF85B889009761
:100A3000A105B10581F069897A898B899C892D8509
:100A40003E854F8558890E940F0A2A30310541059D
:100A5000510508F48BC0C601B5016F5F7F4F8F4F02
:100A60009F4FAE892A2F30E040E050E00E94DC0921
:100A700024E630E040E050E00E940F0A35014601D4
:100A8000621A730A840A950AB8E06B16710481042D
:100A9000910408F065C02EEF3FEF4FEF5FEFA20E1D
:100AA000B31EC41ED51ED601C50186199709A80913
:100AB000B90922E030E040E050E0A20EB31EC41EAF
:100AC000D51E80319105A105B105E0F5182F3D89AE
:100AD0003295330F330F307C832F822966E00E94DA
:100AE0003F024F8941FD4DC090E0862D8295807F69
:100AF000812B892B67E00E943F020E944E0380E019
:100B000069E471E00E94DD0188EE93E00E948009B3
:100B100080E067960FB6F894DEBF0FBECDBFCF91D1
:100B2000DF911F910F91FF90EF90DF90CF90BF90DA
:100B3000AF909F908F907F906F905F904F903F907D
:100B40002F9008954FEE642E4FEF742E4FEF842EAA
:100B50004FEF942E6A0C7B1C8C1C9D1C1FE0B7CFA2
:100B600057E0652E712C812C912C95CF80E06BE3A2
:100B700071E00E94DD0188EE93E00E9480098FEF12
:100B8000C8CF90E8B2CF9F92AF92BF92CF92DF9240
:100B9000EF92FF920F931F935B016C0179018A0121
:100BA0000E947D03882331F5B3E19B2E8A2D692DA8
:100BB0000E943F0284E0980E8E2D692D0E943F0214
:100BC000AB2CBC2CCD2CDD24EF2CF02E012F1127CB
:100BD0008BEF980E8FE0981649F70E944E0380E045
:100BE0001F910F91FF90EF90DF90CF90BF90AF904B
:100BF0009F9008958FEFF4CFCF92EF920F931F93B2
:100C0000CF93DF93EC010E947D03882341F08FEFA7
:100C1000DF91CF911F910F91EF90CF900895888928
:100C200080686FE10E943F0280E064E00E943F0222
:100C3000898968E00E943F020AE510E1802F612F58
:100C40000E943F02015F1F5F023DC1F71AE500E10C
:100C500001C0115F802F0E942502181709F042C0C1
:100C60000F5F133CB1F76C857D858E859F85288548
:100C700039854A855B850E94C305882341F66C81CE
:100C80007D818E819F81611571058105910561F4DA
:100C900080E492E4AFE0B0E08C839D83AE83BF83B9
:100CA00060E472E48FE090E0288139814A815B81C1
:100CB00000E01BE4E12ECC240E945504882309F0B7
:100CC000A6CF8FEA64E00E943F020E944E0380E0BC
:100CD0006BE671E00E94DD0188EE93E00E948009DE
:100CE00080E096CF80E06AE571E00E94DD0188EE49
:100CF00093E00E9480098FEF8BCF1F920F920FB667
:100D00000F9211248F939F93EF93FF939091CC01B7
:100D1000E92FF0E085B1E25DFD4F80839F5F909306
:100D2000CC01933018F01092CC0190E0905A97B912
:100D3000369AFF91EF919F918F910F900FBE0F9078
:100D40001F901895AF92BF92CF92DF92FF920F93B0
:100D50001F93CF93DF9388EDA82E81E0B82E00E09B
:100D600010E020E030E0CC24DD24F501F080E0E06C
:100D700060E070E0E601C25DDD4FEF1508F5A90106
:100D800098012F5F3F4F4F4F5F4F80911502909119
:100D90001602A0911702B091180282179307A407B8
:100DA000B50798F3009115021091160220911702D1
:100DB000309118028881680F711DEF5FEF15F8F20E
:100DC000FF2049F0F601EF51FE4FCB016F2D70E08F
:100DD0000E94FB0960830894C11CD11C0894A11CCB
:100DE000B11C83E0C816D10409F0BFCF3798E09159
:100DF000DC01EE2341F0F0E0E052FE4F9081809163
:100E0000DB01981760F41092E401DF91CF911F91FC
:100E10000F91FF90DF90CF90BF90AF90089581E049
:100E20008093E401F2CFCF93DF93EC01611571055C
:100E300031F486B1806C86B9DF91CF91089561302D
:100E40007105D1F70E94A2068BE297E0998388830F
:100E5000DF91CF910895CF93DF93EC01613071055D
:100E600019F0DF91CF9108958091DD018093F50114
:100E70008091DE018093F6018091DF018093F7017C
:100E80002091E0012093F8018091D801882379F521
:100E900090E08091D901882341F0E92FF0E0EC50F7
:100EA000FE4F8091E20186839F5F8091DA01882363
:100EB00041F0E92FF0E0EC50FE4F8091E301868392
:100EC0009F5F9093F9018091E401882319F02F5FCF
:100ED0002093F80184EF91E00E94B603882369F023
:100EE00085EC98E099838883DF91CF910895809174
:100EF000E1018093FA0191E0CCCF0E946302F0CF30
:100F0000FC01DB0181818F3F09F4A3C0813011F026
:100F100080E008953381832F869586958695877026
:100F2000843009F48CC0853008F454C0863009F44C
:100F300076C0863008F054C040E24093CE01832F43
:100F40008770843009F471C0853008F05FC082304A
:100F500009F479C0833008F074C0813009F44AC0C4
:100F600090E09093CF012481822F8695869587709B
:100F7000843009F462C0853008F040C0823009F442
:100F800052C0833008F057C0813091F180E08093E7
:100F9000D001442329F4992319F4882309F4B8CF04
:100FA00091E09093D30182818093D4013093D50155
:100FB0002093D6018093D1013295369536953370C2
:100FC0003093D201269521702093CD0114969C93E5
:100FD00080E00895823029F1833030F048E0ADCFD1
:100FE000873051F040E0A9CF8130E1F741E0A5CF53
:100FF00081E0CDCF91E0B5CF40E89FCF863039F189
:10100000863018F1873011F680E8C1CF863089F03C
:10101000863068F0873009F0A3CF90E8A2CF40E493
:101020008CCF44E08ACF84E0B2CF90E19ACF90E2B7
:1010300098CF90E496CF88E0AACF80E1A8CF40E196
:101040007CCF98E08ECF94E08CCF80E2A0CF80E47C
:101050009ECF85EE91E00E94B603882311F08FEFBA
:1010600008950E94630280E008951F93CF93DF9359
:10107000EC016115710509F064C00E94180280E45A
:1010800092E4AFE0B0E08093070290930802A0934F
:101090000902B0930A0280E094E2A4EFB0E08093EA
:1010A000030290930402A0930502B09306028FEF0F
:1010B0009FEFAFEFBFEF80930B0290930C02A093D2
:1010C0000D02B0930E0280930F0290931002A09332
:1010D0001102B093120218E0109313028AE1809378
:1010E000140283E092E00E94FC058823D9F584E095
:1010F0008093E50181E08093E6011092E701109270
:10110000E8011092E9011093EA01E9E7F1E0ABEEA2
:10111000B1E081918D9381E0E138F807D1F78FE05C
:1011200086B980E687B91C8280E064EA71E00E949B
:10113000DD0188EE93E00E948009DF91CF911F913D
:10114000089561307105C9F785EE91E00E94B603FC
:101150000E94630285EC98E099838883DF91CF91A8
:101160001F91089580E062E871E00E94DD0188EE41
:1011700093E00E94800980E063E971E00E94DD0154
:1011800088EE93E00E948009D8CFCF93DF93EC01E3
:1011900061307105C1F06130710548F06230710550
:1011A00019F48091D7018C83DF91CF91089580E06D
:1011B00063EB71E00E94DD0188EE93E00E948009FC
:1011C000DF91CF9108958C818823C9F02091150279
:1011D0003091160240911702509118028091C80177
:1011E0009091C901A091CA01B091CB0188519C4F47
:1011F000AF4FBF4F281739074A075B0780F520918B
:1012000015023091160240911702509118028091F8
:10121000C4019091C501A091C601B091C701885148
:101220009C4FAF4FBF4F281739074A075B0708F499
:10123000BBCF8091150290911602A0911702B09138
:1012400018028093C4019093C501A093C601B09386
:10125000C70180E063EB71E00E94DD01A5CF8091C2
:10126000150290911602A0911702B0911802809376
:10127000C8019093C901A093CA01B093CB010E9409
:101280005F02A7EDB1E0EDECF1E08AE001900D9294
:101290008150E1F70E945B0283E197E099838883A4
:1012A000AECF1F920F920FB60F9211248F939F9380
:1012B000AF93BF938091150290911602A0911702EF
:1012C000B09118020196A11DB11D80931502909353
:1012D0001602A0931702B0931802BF91AF919F918D
:1012E0008F910F900FBE0F901F90189512BE8CE734
:1012F0008CBF89B7826089BF83B78B6083BF089535
:10130000EF92FF920F931F932091150230911602D6
:10131000409117025091180220933102309332020B
:1013200040933302509334027C0100E010E080913E
:10133000310290913202A0913302B0913402209197
:1013400015023091160240911702509118028E0D2D
:101350009F1DA01FB11F82179307A407B50738F779
:101360001F910F91FF90EF900895FC019B017183F5
:10137000608360E070E0F90109950895CF93DF93F1
:10138000EC01E881F981FB83EA8361E070E0099573
:10139000EA81FB8188819981E817F90751F0CE0134
:1013A00062E070E00995E881F981CE0160E070E0CB
:1013B0000995DF91CF910895629FD001739FF0014D
:1013C000829FE00DF11D649FE00DF11D929FF00DD5
:1013D000839FF00D749FF00D659FF00D9927729F0C
:1013E000B00DE11DF91F639FB00DE11DF91FBD0197
:1013F000CF0111240895AA1BBB1B51E107C0AA1FEE
:10140000BB1FA617B70710F0A61BB70B881F991FA5
:101410005A95A9F780959095BC01CD010895A1E258
:101420001A2EAA1BBB1BFD010DC0AA1FBB1FEE1F5E
:10143000FF1FA217B307E407F50720F0A21BB30BA9
:10144000E40BF50B661F771F881F991F1A9469F725
:1014500060957095809590959B01AC01BD01CF0181
:101460000895FA01CF93FF93EF932230CCF0253209
:10147000BCF4C22F2C2F332744275527FF93EF931B
:101480000E940F0AEF91FF91605D6A330CF0695D75
:101490006193B901CA01605070408040904051F79B
:1014A00010828F919F91CF910C94560ADC01FC0120
:1014B000672F71917723E1F7329704C07C916D9388
:1014C00070836291AE17BF07C8F30895F894FFCFF9
:1014D00043414E2073656E7A6F72002000696E740E
:1014E00065727275707400534A41206E6F6E65208C
:1014F000696E7420666C6700534A4120495251203E
:1015000052492C2052425300534A41206275732D98
:101510006F666600534A4120726573657474696E24
:10152000672E2E00534A41207265736574204F4B1D
:1015300000534A4120657272206578697420727385
:101540007400534A4120727374206D6F6465206586
:10155000727200534A4120727374206D6F6465206B
:101560004F4B00534A4120627573207265636F765A
:10157000657200534A412054582074696D65642097
:101580006F757400534A41205458206572726F720F
:1015900000526573657420534A4120636869702165
:1015A00000534A412054582E2E2E0053414A2062A7
:1015B0002D72206572726F7200534A41206261750C
:1015C000642072617465204F4B00534A4120636F61
:1015D0006E666967206572726F7200534A412063BC
:1015E0006F6E666967204F4B00766F6B61636D6944
:1015F0006300534A4120636F6E66696720657272AB
:101600006F720052657374617274696E67206368EB
:101610006970210053656E736F7220696E69742062
:101620004F4B0046534D207761697420666F7220DE
:04163000636D640082
:00000001FF
