:100000000C942A000C94D1000C9447000C944700E7
:100010000C9447000C9447000C9447000C94470044
:100020000C9447000C9447000C9447000C94470034
:100030000C9447000C9447000C942C070C94470038
:100040000C9447000C9447000C9447000C94C7078D
:100050000C94470011241FBECFE5D4E0DEBFCDBF16
:1000600011E0A0E6B0E0ECEFF0E102C005900D92E7
:10007000AC36B107D9F711E0ACE6B1E001C01D9292
:10008000A33AB107E1F70E9449000C947C080C9454
:100090000000EF92FF920F931F93E0907A01F0908F
:1000A0007B0100917C0110917D010E94EC070E9470
:1000B000450278948CE00E94C10180E060E670E027
:1000C0000E940A0280E492E4AFE0B0E080939101E4
:1000D00090939201A0939301B093940180E094E2F5
:1000E000A4EFB0E080938D0190938E01A0938F01D7
:1000F000B093900188E0809395018AE18093960106
:100100008CE891E00E94A0068823E9F081E06BE68C
:1001100070E00E940A0280E197E228EC30E0F901E9
:100120003197F1F70197D9F781E069E770E00E9414
:100130000A0280E197E228EC30E0F9013197F1F70B
:100140000197D9F7FFCF0E94360781E067E870E09A
:100150000E940A02A8019701205F384D4F4F5F4F60
:1001600080917A0190917B01A0917C01B0917D01F9
:1001700082179307A407B50798F3E0907A01F090EF
:100180007B0100917C0110917D0140917A01509199
:100190007B0160917C0170917D0181E00E941C02D5
:1001A000D9CF1F920F920FB60F9211240F931F9366
:1001B0002F933F934F935F936F937F938F939F936F
:1001C000AF93BF93EF93FF930EE711E0C8010E9436
:1001D0002703C8010E94AD07FF91EF91BF91AF9136
:1001E0009F918F917F916F915F914F913F912F914F
:1001F0001F910F910F900FBE0F901F9018956623BF
:1002000049F1C09AC1988B9A8C9A8D9A8E9A969839
:1002100095989498939887FD1FC086FD959A85FDC3
:10022000949A84FD939AC29A00C0C2989698959821
:100230009498939883FD969A82FD959A81FD949A5D
:1002400080FD939AC29A00C0C298939A949A959A04
:10025000969A0895C098D6CF969ADFCF882309F151
:10026000C09AC19A8B988C988D988E98C29A00C02B
:10027000839B15C080E1849980628599806486990A
:100280008068C29800C0C29A00C083998160849936
:1002900082608599846086998860C298089580E01C
:1002A000EACFC098DECF80E00E942E0187FDFBCF11
:1002B00084E090E00197F1F780E00E942E0108951C
:1002C0001F93182F0E945301812F60E00E94FF00AE
:1002D0001F9108951F93182F0E945301812F61E0F1
:1002E0000E94FF001F910895662321F080540E9410
:1002F0006001089580580E94600108950E94530192
:1003000090E0089581E00E946001089582E00E94DB
:10031000600108951F93182F0E9453011A3039F479
:10032000803458F080E80E9460011F910895812F69
:1003300061E00E94FF001F91089580ECF4CFCF93FD
:10034000DF93FC018081882339F0EF010E948A014C
:10035000898121968823D1F7DF91CF910895CF939A
:10036000DF93FC018491882349F0EF0121960E94DC
:100370008A01FE01219684918823C9F7DF91CF91EC
:1003800008951F93182FB89AB99ABA9A8B9A8C9A93
:100390008D9A8E9A80E09DE70197F1F7949A939A4F
:1003A000C29A00C0C29880E097E20197F1F7C29A22
:1003B00000C0C29880E890E0FC013197F1F7C29A42
:1003C00000C0C298FC013197F1F79398C29A00C01F
:1003D000C2980197F1F788E20E94600188E00E94CC
:1003E00060010E94820186E00E946001812F0E94CC
:1003F00060011F9108951F93682F80E00E9474018F
:1004000010E080E990E00E949F011F5F1031C9F762
:100410001F910895FF920F931F93F82E8B010E9456
:10042000FB0180E06F2D0E947401C8010E949F01B2
:100430001F910F91FF900895EF92FF921F93DF930A
:10044000CF93CDB7DEB72B970FB6F894DEBF0FBEB4
:10045000CDBF182FCB01BA017E010894E11CF11C1D
:10046000A7012AE030E00E943808812FB7010E94DE
:100470000A022B960FB6F894DEBF0FBECDBFCF9108
:10048000DF911F91FF90EF9008958FEF84BB8AB3A7
:10049000806F8ABB8A98929A85B785BF8BB7806434
:1004A0008BBF0895DF98DD9ADC9ADE9ADF9A9FEF82
:1004B00094BB85BB82E0282F2A95F1F7DF98282F7F
:1004C0002A95F1F7DE98DD9895BB14BA8A95F1F775
:1004D00083B3DD9ADE9A0895DF98DD9ADC9ADE9A7E
:1004E000DF9A2FEF24BB65BB92E0392F3A95F1F7E5
:1004F000DF98392F3A95F1F7DE98DC9824BB85BB5D
:10050000892F8A95F1F7DC9ADE9A9A95F1F708958A
:100510008BB780648BBF08958BB78F7B8BBF08959B
:1005200081E061E00E946C0280E008958F929F92CA
:10053000AF92BF92CF92DF92EF92FF920F931F93F1
:10054000CF93DF93EC0180E10E945202982E81E16B
:100550000E945202B82EBB0CBB0CAA24CC24B7FCC0
:10056000C094DC2C82E10E945202882E83E10E941A
:100570005202E82E84E10E945202382D3295330F48
:10058000307E20E0442737FD4095542FFF24EE0CA9
:10059000FF1CE294F29470EFF722FE24E722FE247F
:1005A0000027F7FC0095102F2E0D3F1D401F511FF7
:1005B000869586958695280F311D411D511D6BE04E
:1005C000AA0CBB1CCC1CDD1C6A95D1F72A0D3B1D67
:1005D0004C1D5D1D29833A834B835C83292D221F8B
:1005E0002227221F220F220F892D90E00024880F3E
:1005F000991F001C880F991F001C892F902D817056
:10060000282B28838FE098229D82092D0930E0F065
:1006100008E010E0812F8B5E0E9452028E831F5FE4
:1006200021961017B8F384E061E00E946C02DF911C
:10063000CF911F910F91FF90EF90DF90CF90BF90DF
:10064000AF909F908F900895992019F7ECCF0F935A
:100650001F93CF93DF93EC0183E00E945202182F87
:1006600080E062E970E00E940A02412F50E060E001
:1006700070E081E00E941C0220E137E248EC50E08B
:10068000CA010197F1F721503040D1F7812F8F7ABD
:10069000A9F481E06CE970E00E940A0220E137E2EF
:1006A00048EC50E0CA010197F1F721503040D1F7F2
:1006B00080E0DF91CF911F910F91089582E00E9419
:1006C0005202082F80FD0AC01C7A11F007FD1BC0E2
:1006D00081E0DF91CF911F910F91089581E06BEA46
:1006E00070E00E940A0220E137E248EC50E0CA01C3
:1006F0000197F1F721503040D1F7CE010E949602C8
:100700001C7A21F7E5CF81E06AEB70E00E940A02D3
:1007100020E137E248EC50E0CA010197F1F721509F
:100720003040D1F781E062EC70E00E940A0220E1E3
:1007300037E248EC50E0CA010197F1F72150304010
:10074000D1F780E060E00E946C0281E0B2CF1F939D
:10075000CF93DF9380E00E94520280FF15C010E02B
:10076000C8ECD0E002C01333B1F080E060E00E943A
:100770006C02CE010197F1F71F5F80E00E945202E8
:1007800080FDF1CF1A3038F40E94880280E0DF91BA
:10079000CF911F91089581E061ED70E00E940A02FF
:1007A00020E137E248EC50E0CA010197F1F721500F
:1007B0003040D1F78FEFEBCF1F93CF93DF930E94A1
:1007C0008C0280E00E94520280FD27C010E0C8EC3D
:1007D000D0E081E060E00E946C02CE010197F1F769
:1007E0001F5F80E00E94520280FD15C01B3089F718
:1007F00081E061EE70E00E940A0220E137E248ECFD
:1008000050E0CA010197F1F721503040D1F70E9422
:1008100088028FEF12C01A3058F781E062EF70E063
:100820000E940A0220E137E248EC50E0CA01019739
:10083000F1F721503040D1F780E0DF91CF911F9147
:100840000895DF92EF92FF920F931F93CF93DF9360
:10085000EC0110E00AE104C01F5F802F8A95F1F7D8
:1008600082E00E94520282FD02C01A30A9F787FD81
:1008700094C082E00E94520282FF58C0DD8088E06E
:100880008D1510F498E0D92E8D2D806860E10E94BE
:100890006C02E980FA800B811C81EE0CFF1C001FAA
:1008A000111FEE0CFF1C001F111FEE0CFF1C001F80
:1008B000111F8E2D64E10E946C02BB27A12F902F87
:1008C0008F2D63E10E946C02C801AA27BB2762E159
:1008D0000E946C02E12EFF24002711278E2D61E17A
:1008E0000E946C02DD2051F010E01B5E8E81612FB2
:1008F0000E946C02145121961D15B8F381E06BE241
:1009000071E00E940A0220E137E248EC50E0CA019F
:100910000197F1F721503040D1F780E0DF91CF917E
:100920001F910F91FF90EF90DF90089581E06FE0AD
:1009300071E00E940A0220E137E248EC50E0CA016F
:100940000197F1F721503040D1F782E061E00E9439
:100950006C0210E00AE104C01F5F802F8A95F1F756
:1009600082E00E94520282FD02C01A30A9F782E0A2
:100970000E94520282FD82CF81E06CE171E00E9410
:100980000A0220E137E248EC50E0CA010197F1F792
:1009900021503040D1F78FEFC1CF81E060E071E0AE
:1009A0000E940A0220E137E248EC50E0CA010197B8
:1009B000F1F721503040D1F70E94DC0380E06EE077
:1009C0000E946C0280E06FE00E946C028CE00E944A
:1009D00052020E94A7034DCF2F923F924F925F92F7
:1009E0006F927F928F929F92AF92BF92CF92DF923F
:1009F000EF92FF920F931F93DF93CF93CDB7DEB7A4
:100A000067970FB6F894DEBF0FBECDBF698B7A8BA8
:100A10008B8B9C8B49015A010D8BEE8ACF8A0E94E9
:100A2000DC03882309F04FC1A50194015695479531
:100A30003795279529873A874B875C8780E09AEC22
:100A4000AAE9BBE38D879E87AF87B88B1D821E8284
:100A50001F82188619821A821B821C8254E0E52E9E
:100A6000F12C012D112D38C0CA01B901A401930147
:100A70000E94F7079B01AC0169857A858B859C856F
:100A80000E94160889899A89AB89BC89821B930BBD
:100A9000A40BB50B2D853E854F855889281739073E
:100AA0004A075B0708F44DC08D879E87AF87B88BD8
:100AB0000894E11CF11C011D111D32E3E316F10441
:100AC0000105110509F446C0AD82BE82CF82D886E9
:100AD00029823A824B825C8257016801D694C7947E
:100AE000B794A794350146010894611C711C811CC0
:100AF000911CC401B30129893A894B895C890E9400
:100B0000F7079B01AC0169857A858B859C850E94DE
:100B10001608D801C70181709070A070B070280FBE
:100B2000391F4A1F5B1F19012A0108942108310847
:100B30004108510890E4291631044104510408F495
:100B400093CFAD80BE80CF80D88429803A804B80FF
:100B50005C80AECF8D859E85AF85B8890097A10555
:100B6000B10581F069897A898B899C892D853E85BB
:100B70004F8558890E9416082A30310541055105D4
:100B800008F492C0C601B5016F5F7F4F8F4F9F4F32
:100B9000AE892A2F30E040E050E00E94F70724E6BB
:100BA00030E040E050E00E94160835014601621A2C
:100BB000730A840A950AB8E06B16710481049104E3
:100BC00008F06CC02EEF3FEF4FEF5FEFA20EB31EA9
:100BD000C41ED51ED601C50186199709A809B909F1
:100BE00022E030E040E050E0A20EB31EC41ED51E4D
:100BF00080319105A105B10508F042C0182F3D894B
:100C00003295330F330F307C832F822966E00E94A8
:100C10006C024F8941FD59C090E0862D8295807FFE
:100C2000812B892B67E00E946C020E94A70381E060
:100C30006EE371E00E940A0220E137E248EC50E0E6
:100C4000CA010197F1F721503040D1F780E0679653
:100C50000FB6F894DEBF0FBECDBFCF91DF911F91CD
:100C60000F91FF90EF90DF90CF90BF90AF909F904B
:100C70008F907F906F905F904F903F902F9008954E
:100C80002FEE622E2FEF722E2FEF822E2FEF922E4D
:100C90006A0C7B1C8C1C9D1C1FE0B1CF37E0632EBF
:100CA000712C812C912C8ECF81E06EE271E00E943C
:100CB0000A0220E137E248EC50E0CA010197F1F75F
:100CC00021503040D1F78FEFC2CF90E8A6CF9F924E
:100CD000AF92BF92CF92DF92EF92FF920F931F934A
:100CE0005B016C0179018A010E94DC03882331F5E4
:100CF000F3E19F2E8A2D692D0E946C0284E0980EEC
:100D00008E2D692D0E946C02AB2CBC2CCD2CDD24C9
:100D1000EF2CF02E012F11278BEF980E8FE09816F5
:100D200049F70E94A70380E01F910F91FF90EF9079
:100D3000DF90CF90BF90AF909F9008958FEFF4CF4A
:100D4000CF92EF920F931F93CF93DF93EC010E940A
:100D5000DC03882341F08FEFDF91CF911F910F913A
:100D6000EF90CF900895898580686FE10E946C02B2
:100D700080E064E00E946C028A8568E00E946C0258
:100D80000AE510E1802F612F0E946C02015F1F5F56
:100D9000023DC1F71AE500E101C0115F802F0E94FA
:100DA0005202181709F048C00F5F133CB1F760E01A
:100DB00070E080E090E02FEF3FEF4FEF5FE00E94A8
:100DC0006706882341F66D817E818F819885611544
:100DD00071058105910561F480E492E4AFE0B0E033
:100DE0008D839E83AF83B88760E472E48FE090E0E8
:100DF00029813A814B815C8100E0ABE4EA2ECC246E
:100E00000E94EC04882309F0A6CF8FEA64E00E94D8
:100E10006C020E94A70381E068E571E00E940A026B
:100E200020E137E248EC50E0CA010197F1F7215088
:100E30003040D1F780E090CF81E06BE471E00E9418
:100E40000A0220E137E248EC50E0CA010197F1F7CD
:100E500021503040D1F77FCF1F920F920FB60F92E3
:100E600011240F900FBE0F901F90189584E080936F
:100E70006C0110926D0110926E0110926F01109230
:100E8000700188E080937101E2E6F1E0A2E7B1E051
:100E900081918D9381E0EA36F807D1F780E00895DB
:100EA000CF93DF93EC0189819A81AB81BC815DE0B6
:100EB000B695A795979587955A95D1F780939E01FA
:100EC00041E0242F2150E22FF0E089819A81AB810B
:100ED000BC81213009F43EC0213068F4E956FE4F50
:100EE0002AE0B695A795979587952A95D1F78770AB
:100EF00081834F5FE6CF223001F120E030E0E956F8
:100F0000FE4F04C0B695A795979587952A95D2F779
:100F100087708183433068F389819A81AB81BC817A
:100F200046E0B695A795979587954A95D1F7817034
:100F300080939701DF91CF910895E956FE4FB695C2
:100F4000A79597958795B695A79597958795877057
:100F50008183E2CF27E030E0D2CFFC018181928112
:100F6000A381B4810097A105B10529F0CF010E94AA
:100F7000500780E008958CE691E00E9421048823C8
:100F800011F08FEF08950E94900280E008951F9263
:100F90000F920FB60F9211248F939F93AF93BF932D
:100FA00080917A0190917B01A0917C01B0917D01AB
:100FB0000196A11DB11D80937A0190937B01A093AE
:100FC0007C01B0937D01BF91AF919F918F910F9064
:100FD0000FBE0F901F90189512BE8AE78CBF89B77D
:100FE000826089BF83B78B6083BF08950895629F35
:100FF000D001739FF001829FE00DF11D649FE00D11
:10100000F11D929FF00D839FF00D749FF00D659F71
:10101000F00D9927729FB00DE11DF91F639FB00D70
:10102000E11DF91FBD01CF0111240895A1E21A2E7F
:10103000AA1BBB1BFD010DC0AA1FBB1FEE1FFF1F7C
:10104000A217B307E407F50720F0A21BB30BE40BCC
:10105000F50B661F771F881F991F1A9469F7609513
:101060007095809590959B01AC01BD01CF010895CD
:10107000FA01CF93FF93EF93223044F1253234F5F8
:10108000C22FE894CA3049F497FB3EF490958095BE
:10109000709561957F4F8F4F9F4F2C2F332744279B
:1010A0005527FF93EF930E941608EF91FF91605D23
:1010B0006A330CF0695D6193B901CA0160507040F8
:1010C0008040904051F716F4CDE2C19310828F9189
:1010D0009F91CF910C946C08DC01FC01672F7191FA
:1010E0007723E1F7329704C07C916D93708362910E
:0C10F000AE17BF07C8F30895F894FFCFB7
:1010FC0043414E2073656E7A6F7200436F6E666962
:10110C0067206572726F722100526573746172741C
:10111C00696E672E2E2E0054696D653A206D730032
:10112C002000496E74657272757074004E6F6E6536
:10113C0020696E742E20666C6167004952513A200A
:10114C005249206F7220524253006275732D6F66A4
:10115C006600726573657474696E67206368697084
:10116C00004572722E2065786974207265736574FF
:10117C00005265736574206D6F6465206572726FC3
:10118C0072005265736574206D6F6465204F4B005F
:10119C00427573207265636F766572696E67005471
:1011AC00582074696D6564206F75740054782065DF
:1011BC0072722E205265736574210054780042615E
:1011CC0075642072617465206572726F7200426181
:1011DC0075642072617465204F4B00436F6E6669B5
:1011EC0067206572726F7200436F6E666967204F7D
:0C11FC004B00766F6B61636D696300004F
:00000001FF
