:100000000C942A000C94CB000C9447000C944700ED
:100010000C9447000C9447000C9447000C94470044
:100020000C9447000C9447000C9447000C94470034
:100030000C9447000C9447000C9434070C94470030
:100040000C9447000C9447000C9447000C94E4086F
:100050000C94470011241FBECFE5D4E0DEBFCDBF16
:1000600011E0A0E6B0E0E2E8F3E102C005900D92F5
:10007000A03CB107D9F712E0A0ECB1E001C01D929D
:10008000A230B107E1F70E9449000C94BF090C941B
:100090000000EF92FF920F931F93E090DA01F0902F
:1000A000DB010091DC011091DD010E9409090E9431
:1000B000440278948CE00E94C00180E060E670E029
:1000C0000E94090280E492E4AFE0B0E08093F9017D
:1000D0009093FA01A093FB01B093FC0180E094E2BD
:1000E000A4EFB0E08093F5019093F601A093F7019F
:1000F000B093F80188E08093FD018AE18093FE01CE
:1001000084EF91E00E94A8068823E9F080E06BE686
:1001100070E00E94090280E197E228EC30E0F901EA
:100120003197F1F70197D9F780E069E770E00E9415
:10013000090280E197E228EC30E0F9013197F1F70C
:100140000197D9F7FFCF0E949F078EED91E069E4F8
:1001500077E00E941309A8019701265F3F4F4F4F98
:100160005F4F8091DA019091DB01A091DC01B091A9
:10017000DD0182179307A407B50798F3E090DA0131
:10018000F090DB010091DC011091DD018EED91E03A
:100190000E941C09E0CF1F920F920FB60F921124FC
:1001A0002F933F934F935F936F937F938F939F937F
:1001B000AF93BF93EF93FF9385EE91E00E943003DE
:1001C0008091F301813089F0FF91EF91BF91AF9160
:1001D0009F918F917F916F915F914F913F912F915F
:1001E0000F900FBE0F901F9018951092F30185EE9F
:1001F00091E06EED71E00E944D08E6CF662349F173
:10020000C09AC1988B9A8C9A8D9A8E9A9698959846
:100210009498939887FD1FC086FD959A85FD949AC2
:1002200084FD939AC29A00C0C29896989598949823
:10023000939883FD969A82FD959A81FD949A80FD0C
:10024000939AC29A00C0C298939A949A959A969A51
:100250000895C098D6CF969ADFCF882309F1C09A27
:10026000C19A8B988C988D988E98C29A00C0839B67
:1002700015C080E184998062859980648699806840
:10028000C29800C0C29A00C083998160849982603C
:100290008599846086998860C298089580E0EACF45
:1002A000C098DECF80E00E942D0187FDFBCF84E067
:1002B00090E00197F1F780E00E942D0108951F93CF
:1002C000182F0E945201812F60E00E94FE001F91B2
:1002D00008951F93182F0E945201812F61E00E9400
:1002E000FE001F910895662321F080540E945F0153
:1002F000089580580E945F0108950E94520190E085
:10030000089581E00E945F01089582E00E945F01EC
:1003100008951F93182F0E9452011A3039F4803427
:1003200058F080E80E945F011F910895812F61E0DD
:100330000E94FE001F91089580ECF4CFCF93DF93CD
:10034000FC018081882339F0EF010E9489018981B5
:1003500021968823D1F7DF91CF910895CF93DF9332
:10036000FC018491882349F0EF0121960E948901C4
:10037000FE01219684918823C9F7DF91CF910895DA
:100380001F93182FB89AB99ABA9A8B9A8C9A8D9A09
:100390008E9A80E09DE70197F1F7949A939AC29A1A
:1003A00000C0C29880E097E20197F1F7C29A00C0BE
:1003B000C29880E890E0FC013197F1F7C29A00C042
:1003C000C298FC013197F1F79398C29A00C0C29885
:1003D0000197F1F788E20E945F0188E00E945F01C7
:1003E0000E94810186E00E945F01812F0E945F01CF
:1003F0001F9108951F93682F80E00E94730110E001
:1004000087E890E00E949E011F5F1031C9F71F919D
:100410000895FF920F931F93F82E8B010E94FA010B
:1004200080E06F2D0E947301C8010E949E011F9100
:100430000F91FF900895EF92FF921F93DF93CF9358
:10044000CDB7DEB72B970FB6F894DEBF0FBECDBF8A
:10045000182FCB01BA017E010894E11CF11CA70101
:100460002AE030E00E947B09812FB7010E94090237
:100470002B960FB6F894DEBF0FBECDBFCF91DF91A4
:100480001F91FF90EF9008958FEF84BB8AB3806F28
:100490008ABB8A98929A85B785BF8BB780648BBFD9
:1004A0000895DF98DD9ADC9ADE9ADF9A9FEF94BB7D
:1004B00085BB82E0282F2A95F1F7DF98282F2A950F
:1004C000F1F7DE98DD9895BB14BA8A95F1F783B3FE
:1004D000DD9ADE9A0895DF98DD9ADC9ADE9ADF9A3B
:1004E0002FEF24BB65BB92E0392F3A95F1F7DF98E7
:1004F000392F3A95F1F7DE98DC9824BB85BB892F1C
:100500008A95F1F7DC9ADE9A9A95F1F708958BB700
:1005100080648BBF08958BB78F7B8BBF089581E07C
:1005200061E00E946B0280E008956F927F928F924B
:100530009F92AF92BF92CF92DF92EF92FF920F9372
:100540001F93CF93DF933C0180E10E945102982ECC
:1005500081E10E945102B82EBB0CBB0CAA24CC2412
:10056000B7FCC094DC2C82E10E945102882E83E10A
:100570000E945102E82E84E10E945102382D3295EA
:10058000330F307E20E0442737FD4095542FFF2461
:10059000EE0CFF1CE294F29470EFF722FE24E722A7
:1005A000FE240027F7FC0095102F2E0D3F1D401F45
:1005B000511F869586958695280F311D411D511D29
:1005C0006BE0AA0CBB1CCC1CDD1C6A95D1F72A0D74
:1005D0003B1D4C1D5D1DF3012183328343835483F6
:1005E000292D221F2227221F220F220F892D90E062
:1005F0000024880F991F001C880F991F001C892F49
:10060000902D8170282B2083FFE09F22F30195829B
:10061000092D093010F108E0E30110E0812F8B5E15
:100620000E9451028E831F5F21961017B8F381E05C
:10063000F301868784E061E00E946B02DF91CF9135
:100640001F910F91FF90EF90DF90CF90BF90AF90F0
:100650009F908F907F906F9008959920E9F6E7CF53
:100660000F931F93CF93DF93EC0183E00E9451021D
:10067000182F80E069E870E00E940902412F50E0E5
:1006800060E070E081E00E941B0220E137E248EC6C
:1006900050E0CA010197F1F721503040D1F7812F86
:1006A0008F7AA1F463E970E00E94090220E137E249
:1006B00048EC50E0CA010197F1F721503040D1F7E2
:1006C00080E0DF91CF911F910F91089582E00E9409
:1006D0005102082F80FD0AC01C7A11F007FD1BC0D3
:1006E00081E0DF91CF911F910F91089580E062EA40
:1006F00070E00E94090220E137E248EC50E0CA01B4
:100700000197F1F721503040D1F7CE010E949502B8
:100710001C7A21F7E5CF80E061EB70E00E940902CE
:1007200020E137E248EC50E0CA010197F1F721508F
:100730003040D1F780E069EB70E00E94090220E1CF
:1007400037E248EC50E0CA010197F1F72150304000
:10075000D1F780E060E00E946B0281E0B2CF1F938E
:10076000CF93DF9380E00E94510280FF15C010E01C
:10077000C8ECD0E002C01333B1F080E060E00E942A
:100780006B02CE010197F1F71F5F80E00E945102DA
:1007900080FDF1CF1A3038F40E94870280E0DF91AB
:1007A000CF911F91089580E068EC70E00E940902EB
:1007B00020E137E248EC50E0CA010197F1F72150FF
:1007C0003040D1F78FEFEBCF1F93CF93DF930E9491
:1007D0008B0280E00E94510280FD27C010E0C8EC2F
:1007E000D0E081E060E00E946B02CE010197F1F75A
:1007F0001F5F80E00E94510280FD15C01B3089F709
:1008000080E068ED70E00E94090220E137E248ECE8
:1008100050E0CA010197F1F721503040D1F70E9412
:1008200087028FEF12C01A3058F780E069EE70E04F
:100830000E94090220E137E248EC50E0CA0101972A
:10084000F1F721503040D1F780E0DF91CF911F9137
:100850000895DF92EF92FF920F931F93CF93DF9350
:10086000EC0110E00AE104C01F5F802F8A95F1F7C8
:1008700082E00E94510282FD02C01A30A9F787FD72
:1008800094C082E00E94510282FF58C0DD8088E05F
:100890008D1510F498E0D92E8D2D806860E10E94AE
:1008A0006B02E980FA800B811C81EE0CFF1C001F9B
:1008B000111FEE0CFF1C001F111FEE0CFF1C001F70
:1008C000111F8E2D64E10E946B02BB27A12F902F78
:1008D0008F2D63E10E946B02C801AA27BB2762E14A
:1008E0000E946B02E12EFF24002711278E2D61E16B
:1008F0000E946B02DD2051F010E01B5E8E81612FA3
:100900000E946B02145121961D15B8F380E062E23B
:1009100071E00E94090220E137E248EC50E0CA0190
:100920000197F1F721503040D1F780E0DF91CF916E
:100930001F910F91FF90EF90DF90089580E066E0A7
:1009400071E00E94090220E137E248EC50E0CA0160
:100950000197F1F721503040D1F782E061E00E9429
:100960006B0210E00AE104C01F5F802F8A95F1F747
:1009700082E00E94510282FD02C01A30A9F782E093
:100980000E94510282FD82CF80E063E171E00E940B
:10099000090220E137E248EC50E0CA010197F1F783
:1009A00021503040D1F78FEFC1CF80E067EF70E08A
:1009B0000E94090220E137E248EC50E0CA010197A9
:1009C000F1F721503040D1F70E94E40380E06EE05F
:1009D0000E946B0280E06FE00E946B028CE00E943C
:1009E00051020E94AF034DCF2F923F924F925F92E0
:1009F0006F927F928F929F92AF92BF92CF92DF922F
:100A0000EF92FF920F931F93DF93CF93CDB7DEB793
:100A100067970FB6F894DEBF0FBECDBF698B7A8B98
:100A20008B8B9C8B49015A010D8BEE8ACF8A0E94D9
:100A3000E403882309F04FC1A50194015695479519
:100A40003795279529873A874B875C8754E0E52EB1
:100A5000F12C012D112D80E09AECAAE9BBE38D87E2
:100A60009E87AF87B88B1D821E821F8218861982CF
:100A70001A821B821C8238C0CA01B901A4019301E9
:100A80000E943A099B01AC0169857A858B859C851A
:100A90000E94590989899A89AB89BC89821B930B69
:100AA000A40BB50B2D853E854F855889281739072E
:100AB0004A075B0708F44DC08D879E87AF87B88BC8
:100AC0000894E11CF11C011D111D32E3E316F10431
:100AD0000105110509F446C0AD82BE82CF82D886D9
:100AE00029823A824B825C8257016801D694C7946E
:100AF000B794A794350146010894611C711C811CB0
:100B0000911CC401B30129893A894B895C890E94EF
:100B10003A099B01AC0169857A858B859C850E9489
:100B20005909D801C70181709070A070B070280F6A
:100B3000391F4A1F5B1F19012A0108942108310837
:100B40004108510890E4291631044104510408F485
:100B500093CFAD80BE80CF80D88429803A804B80EF
:100B60005C80AECF8D859E85AF85B8890097A10545
:100B7000B10581F069897A898B899C892D853E85AB
:100B80004F8558890E9459092A3031054105510580
:100B900008F492C0C601B5016F5F7F4F8F4F9F4F22
:100BA000AE892A2F30E040E050E00E943A0924E666
:100BB00030E040E050E00E94590935014601621AD8
:100BC000730A840A950AB8E06B16710481049104D3
:100BD00008F06CC02EEF3FEF4FEF5FEFA20EB31E99
:100BE000C41ED51ED601C50186199709A809B909E1
:100BF00022E030E040E050E0A20EB31EC41ED51E3D
:100C000080319105A105B10508F042C0182F3D893A
:100C10003295330F330F307C832F822966E00E9498
:100C20006B024F8941FD59C090E0862D8295807FEF
:100C3000812B892B67E00E946B020E94AF0380E04A
:100C400065E371E00E94090220E137E248EC50E0E0
:100C5000CA010197F1F721503040D1F780E0679643
:100C60000FB6F894DEBF0FBECDBFCF91DF911F91BD
:100C70000F91FF90EF90DF90CF90BF90AF909F903B
:100C80008F907F906F905F904F903F902F9008953E
:100C90002FEE622E2FEF722E2FEF822E2FEF922E3D
:100CA0006A0C7B1C8C1C9D1C1FE0B1CF37E0632EAF
:100CB000712C812C912C8ECF80E065E271E00E9436
:100CC000090220E137E248EC50E0CA010197F1F750
:100CD00021503040D1F78FEFC2CF90E8A6CF9F923E
:100CE000AF92BF92CF92DF92EF92FF920F931F933A
:100CF0005B016C0179018A010E94E403882331F5CC
:100D0000F3E19F2E8A2D692D0E946B0284E0980EDC
:100D10008E2D692D0E946B02AB2CBC2CCD2CDD24BA
:100D2000EF2CF02E012F11278BEF980E8FE09816E5
:100D300049F70E94AF0380E01F910F91FF90EF9061
:100D4000DF90CF90BF90AF909F9008958FEFF4CF3A
:100D5000CF92EF920F931F93CF93DF93EC010E94FA
:100D6000E403882341F08FEFDF91CF911F910F9122
:100D7000EF90CF900895898580686FE10E946B02A3
:100D800080E064E00E946B028A8568E00E946B024A
:100D90000AE510E1802F612F0E946B02015F1F5F47
:100DA000023DC1F71AE500E101C0115F802F0E94EA
:100DB0005102181709F048C00F5F133CB1F760E00B
:100DC00070E080E090E02FEF3FEF4FEF5FE00E9498
:100DD0006F06882341F66D817E818F81988561152C
:100DE00071058105910561F480E492E4AFE0B0E023
:100DF0008D839E83AF83B88760E472E48FE090E0D8
:100E000029813A814B815C8100E0ABE4EA2ECC245D
:100E10000E94F404882309F0A6CF8FEA64E00E94C0
:100E20006B020E94AF0380E06FE471E00E94090250
:100E300020E137E248EC50E0CA010197F1F7215078
:100E40003040D1F780E090CF80E062E471E00E9412
:100E5000090220E137E248EC50E0CA010197F1F7BE
:100E600021503040D1F77FCF1F920F920FB60F92D3
:100E700011248F9385B18093FF0181E687B98AE1C0
:100E80008A95F1F7379A8F910F900FBE0F901F90B0
:100E90001895FC0161307105A1F06230710509F00F
:100EA000089580E069E571E00E94090220E137E2DF
:100EB00048EC50E0CA010197F1F721503040D1F7DA
:100EC000089581E08483158286838AE697E0918382
:100ED00080830895CF93DF93EC016130710551F069
:100EE0006230710521F41E828091C6018C83DF91EE
:100EF000CF91089580E065E671E00E94090220E14B
:100F000037E248EC50E0CA010197F1F72150304038
:100F1000D1F78C81882359F38091C701882341F44C
:100F20008091C801882321F48091C9018823F9F2B6
:100F300088ED97E099838883DF91CF91089584E0CD
:100F40008093CB011092CC011092CD011092CE0172
:100F50001092CF0188E08093D001E6E7F1E0A1EDA7
:100F6000B1E081918D9381E0EE37F807D1F781E010
:100F70008093C7018093C8018093C9018093C60103
:100F80001092CA0188E886B980E687B9379A80E06E
:100F90006FE771E00E94090220E137E248EC50E07F
:100FA000CA010197F1F721503040D1F780E0089550
:100FB000CF93DF93EC0161307105E1F06130710591
:100FC00038F06230710509F41C82DF91CF910895E9
:100FD00080E06EE871E00E94090220E137E248EC0F
:100FE00050E0CA010197F1F721503040D1F7DF916D
:100FF000CF9108952091DA013091DB014091DC011D
:101000005091DD018091C2019091C301A091C40172
:10101000B091C50188519C4FAF4FBF4F281739077A
:101020004A075B0750F48D81882379F28AE697E0BE
:1010300099838883DF91CF9108958091DA0190910F
:10104000DB01A091DC01B091DD018093C20190939E
:10105000C301A093C401B093C5014091C001509158
:10106000C1014F5F5F4F5093C1014093C001415098
:101070005040662757FD6095762F81E00E941B0245
:101080008091C0019091C1010A976CF21092C10148
:101090001092C00181E08D83C6CF1F93CF93DF9361
:1010A000EB01FC01218132814381548121153105FD
:1010B0004105510509F46EC0DA01C9011DE0B6957C
:1010C000A795979587951A95D1F78093CA01DA016C
:1010D000C901FAE0B695A79597958795FA95D1F746
:1010E000782F777060E0122F1770DA01C901E7E0FE
:1010F000B695A79597958795EA95D1F78770E62FCE
:10110000F0E0613051F0613068F4EA53FE4F7183D2
:1011100061E0E62FF0E06130B1F7EA53FE4F8183E2
:1011200062E0EDCF623039F1EA53FE4F11836F5F19
:10113000633028F376E056954795379527957A954D
:10114000D1F7822F81708093C60181E08C8380E08B
:101150006EEA71E00E94090220E137E248EC50E0BB
:10116000CA010197F1F721503040D1F780E0DF91BB
:10117000CF911F910895EA53FE4FDA01C901B69548
:10118000A79597958795B695A79597958795877015
:101190008183D0CF8BEC91E00E942904882311F049
:1011A0008FEFE5CF0E948F0280E06FE971E00E942F
:1011B000090220E137E248EC50E0CA010197F1F75B
:1011C00021503040D1F7C3CF1F920F920FB60F922C
:1011D00011248F939F93AF93BF938091DA019091E5
:1011E000DB01A091DC01B091DD010196A11DB11DD3
:1011F0008093DA019093DB01A093DC01B093DD01D1
:10120000BF91AF919F918F910F900FBE0F901F9044
:10121000189512BE8CE78CBF89B7826089BF83B7EF
:101220008B6083BF0895FC019B017183608360E044
:1012300070E0F90109950895CF93DF93EC01E881FF
:10124000F981FB83EA8361E070E00995EA81FB8123
:1012500088819981E817F90751F0CE0162E070E0CA
:101260000995E881F981CE0160E070E00995DF9190
:10127000CF910895629FD001739FF001829FE00D8E
:10128000F11D649FE00DF11D929FF00D839FF00D05
:10129000749FF00D659FF00D9927729FB00DE11DB1
:1012A000F91F639FB00DE11DF91FBD01CF0111248E
:1012B0000895A1E21A2EAA1BBB1BFD010DC0AA1F97
:1012C000BB1FEE1FFF1FA217B307E407F50720F0AF
:1012D000A21BB30BE40BF50B661F771F881F991F2A
:1012E0001A9469F760957095809590959B01AC0173
:1012F000BD01CF010895FA01CF93FF93EF93223000
:1013000044F1253234F5C22FE894CA3049F497FBF2
:101310003EF490958095709561957F4F8F4F9F4FCC
:101320002C2F332744275527FF93EF930E94590909
:10133000EF91FF91605D6A330CF0695D6193B901D3
:10134000CA01605070408040904051F716F4CDE2E1
:10135000C19310828F919F91CF910C94AF09DC01C2
:10136000FC01672F71917723E1F7329704C07C91DC
:101370006D9370836291AE17BF07C8F30895F89418
:02138000FFCF9D
:1013820043414E2073656E7A6F7200436F6E6669D9
:1013920067206572726F7221005265737461727494
:1013A200696E672E2E2E002000496E74657272756A
:1013B2007074004E6F6E6520696E742E20666C61CB
:1013C20067004952513A205249206F7220524253CB
:1013D200006275732D6F6666007265736574746959
:1013E2006E672063686970004572722E20657869A5
:1013F20074207265736574005265736574206D6F35
:101402006465206572726F72005265736574206D37
:101412006F6465204F4B00427573207265636F766F
:101422006572696E670054582074696D6564206F37
:101432007574005478206572722E2052657365743B
:1014420021005478004261756420726174652065E0
:1014520072726F7200426175642072617465204F0E
:101462004B00436F6E666967206572726F7200434C
:101472006F6E666967204F4B0046534D20696E6957
:1014820074204F4B0046534D207761697420666F7C
:101492007220636D6400766F6B61636D69630053E4
:1014A200656E736F7220696E6974204F4B004653EC
:1014B2004D206361707475726520646174610049C6
:1014C200444E3F20616E73776572204F4B00536527
:1014D2006E736F7220636F6E666967204F4B0000F8
:00000001FF
