:100000000C942A000C94D5000C9447000C944700E3
:100010000C9447000C9447000C9447000C94470044
:100020000C9447000C9447000C9447000C94470034
:100030000C9447000C9447000C9494080C944700CF
:100040000C9447000C9447000C9447000C940B0A46
:100050000C94470011241FBECFE5D4E0DEBFCDBF16
:1000600011E0A0E6B0E0E8EFF5E102C005900D92E6
:10007000AA3EB107D9F712E0AAEEB1E001C01D9285
:10008000A534B107E1F70E9449000C94FA0A0C94D8
:100090000000EF92FF920F931F93E0901902F090EF
:1000A0001A0200911B0210911C0278940E94300ADF
:1000B0000E944E028CE00E94CA0180E060E670E07F
:1000C0000E94130228E833E148EC50E0CA0101978E
:1000D000F1F721503040D1F780E492E4AFE0B0E096
:1000E00080933C0290933D02A0933E02B0933F0266
:1000F00080E094E2A4EFB0E080933802909339025C
:10010000A0933A02B0933B0288E0809340028AE1D8
:100110008093410287E392E00E94BC068823E9F0C5
:1001200080E06BE670E00E94130288E893E128EC1F
:1001300030E0F9013197F1F70197D9F780E069E7ED
:1001400070E00E94130288E893E128EC30E0F901A6
:100150003197F1F70197D9F7FFCF0E94670781E246
:1001600092E068E477E00E943A0AA80197012C59CE
:100170003F4F4F4F5F4F8091190290911A02A0910B
:100180001B02B0911C0282179307A407B50798F3CE
:10019000E0901902F0901A0200911B0210911C02CB
:1001A00081E292E00E94430AE0CF1F920F920FB6C5
:1001B0000F9211242F933F934F935F936F937F93ED
:1001C0008F939F93AF93BF93EF93FF9388E292E057
:1001D0000E943A0380913602813089F0FF91EF91BD
:1001E000BF91AF919F918F917F916F915F914F914F
:1001F0003F912F910F900FBE0F901F901895109266
:10020000360288E292E061E272E00E945109E6CF94
:10021000662349F1C09AC1988B9A8C9A8D9A8E9ACE
:10022000969895989498939887FD1FC086FD959A07
:1002300085FD949A84FD939AC29A00C0C2989698BC
:1002400095989498939883FD969A82FD959A81FD4E
:10025000949A80FD939AC29A00C0C298939A949AF5
:10026000959A969A0895C098D6CF969ADFCF88230C
:1002700009F1C09AC19A8B988C988D988E98C29AE1
:1002800000C0839B15C080E1849980628599806459
:1002900086998068C29800C0C29A00C08399816024
:1002A000849982608599846086998860C29808954F
:1002B00080E0EACFC098DECF80E00E94370187FD62
:1002C000FBCF84E090E00197F1F780E00E943701D6
:1002D00008951F93182F0E945C01812F60E00E94F7
:1002E00008011F9108951F93182F0E945C01812F10
:1002F00061E00E9408011F910895662321F0805457
:100300000E946901089580580E94690108950E9421
:100310005C0190E0089581E00E946901089582E007
:100320000E94690108951F93182F0E945C011A30E2
:1003300039F4803458F080E80E9469011F910895D3
:10034000812F61E00E9408011F91089580ECF4CF95
:10035000CF93DF93FC018081882339F0EF010E9465
:100360009301898121968823D1F7DF91CF91089558
:10037000CF93DF93FC018491882349F0EF0121960C
:100380000E949301FE01219684918823C9F7DF9191
:10039000CF9108951F93182FB89AB99ABA9A8B9A49
:1003A0008C9A8D9A8E9A80E09DE70197F1F7949A46
:1003B000939AC29A00C0C29880E097E20197F1F741
:1003C000C29A00C0C29880E890E0FC013197F1F732
:1003D000C29A00C0C298FC013197F1F79398C29A73
:1003E00000C0C2980197F1F788E20E94690188E095
:1003F0000E9469010E948B0186E00E946901812FA1
:100400000E9469011F9108951F93682F80E00E9448
:100410007D0110E087E890E00E94A8011F5F103185
:10042000C9F71F910895FF920F931F93F82E8B0128
:100430000E94040280E06F2D0E947D01C8010E948D
:10044000A8011F910F91FF900895EF92FF921F93C3
:10045000DF93CF93CDB7DEB72B970FB6F894DEBFFF
:100460000FBECDBF182FCB01BA017E010894E11C4D
:10047000F11CA7012AE030E00E94B60A812FB701E3
:100480000E9413022B960FB6F894DEBF0FBECDBFAD
:10049000CF91DF911F91FF90EF9008958FEF84BB74
:1004A0008AB3806F8ABB8A98929A85B785BF8BB7CB
:1004B00080648BBF0895DF98DD9ADC9ADE9ADF9A1C
:1004C0009FEF94BB85BB82E0282F2A95F1F7DF9838
:1004D000282F2A95F1F7DE98DD9895BB14BA8A95F6
:1004E000F1F783B3DD9ADE9A0895DF98DD9ADC9AFE
:1004F000DE9ADF9A2FEF24BB65BB92E0392F3A9545
:10050000F1F7DF98392F3A95F1F7DE98DC9824BBA4
:1005100085BB892F8A95F1F7DC9ADE9A9A95F1F7D7
:1005200008958BB780648BBF08958BB78F7B8BBF8B
:10053000089581E061E00E94750280E008956F9265
:100540007F928F929F92AF92BF92CF92DF92EF9263
:10055000FF920F931F93CF93DF933C0180E10E94A2
:100560005B02982E81E10E945B02B82EBB0CBB0C93
:10057000AA24CC24B7FCC094DC2C82E10E945B024C
:10058000882E83E10E945B02E82E84E10E945B02D8
:10059000382D3295330F307E20E0442737FD4095CB
:1005A000542FFF24EE0CFF1CE294F29470EFF7221C
:1005B000FE24E722FE240027F7FC0095102F2E0DC5
:1005C0003F1D401F511F869586958695280F311D2A
:1005D000411D511D6BE0AA0CBB1CCC1CDD1C6A9597
:1005E000D1F72A0D3B1D4C1D5D1DF3012183328384
:1005F00043835483292D221F2227221F220F220FDB
:10060000892D90E00024880F991F001C880F991FE6
:10061000001C892F902D8170282B2083FFE09F22C2
:10062000F3019582092D093010F108E0E30110E093
:10063000812F8B5E0E945B028E831F5F21961017B5
:10064000B8F381E0F301868784E061E00E947502DF
:10065000DF91CF911F910F91FF90EF90DF90CF909E
:10066000BF90AF909F908F907F906F90089599204A
:10067000E9F6E7CF0F931F93CF93DF93EC0183E06D
:100680000E945B02182F80E069E870E00E9413026C
:1006900028E833E148EC50E0CA010197F1F7215016
:1006A0003040D1F7412F50E060E070E081E00E94DF
:1006B000250228E833E148EC50E0CA010197F1F740
:1006C00021503040D1F7812F8F7AA1F463E970E097
:1006D0000E94130228E833E148EC50E0CA01019778
:1006E000F1F721503040D1F780E0DF91CF911F9199
:1006F0000F91089582E00E945B02082F80FD0AC0DE
:100700001C7A11F007FD1BC081E0DF91CF911F9192
:100710000F91089580E062EA70E00E94130228E8D9
:1007200033E148EC50E0CA010197F1F72150304025
:10073000D1F7CE010E949F021C7A21F7E5CF80E01D
:1007400061EB70E00E94130228E833E148EC50E0CE
:10075000CA010197F1F721503040D1F780E069EBF1
:1007600070E00E94130228E833E148EC50E0CA012F
:100770000197F1F721503040D1F780E060E00E940E
:10078000750281E0B2CF1F93CF93DF9380E00E9488
:100790005B0280FF15C010E0C8ECD0E002C013334C
:1007A000B1F080E060E00E947502CE010197F1F7A0
:1007B0001F5F80E00E945B0280FDF1CF1A3038F4A9
:1007C0000E94910280E0DF91CF911F91089580E017
:1007D00068EC70E00E94130228E833E148EC50E036
:1007E000CA010197F1F721503040D1F78FEFEBCFDD
:1007F0001F93CF93DF930E94950280E00E945B02DB
:1008000080FD27C010E0C8ECD0E081E060E00E94ED
:100810007502CE010197F1F71F5F80E00E945B0235
:1008200080FD15C01B3089F780E068ED70E00E9404
:10083000130228E833E148EC50E0CA010197F1F7D0
:1008400021503040D1F70E9491028FEF12C01A3030
:1008500058F780E069EE70E00E94130228E833E167
:1008600048EC50E0CA010197F1F721503040D1F730
:1008700080E0DF91CF911F910895DF92EF92FF9278
:100880000F931F93CF93DF93EC0110E00AE104C0B4
:100890001F5F802F8A95F1F782E00E945B0282FD44
:1008A00002C01A30A9F787FD94C082E00E945B0263
:1008B00082FF58C0DD8088E08D1510F498E0D92EB5
:1008C0008D2D806860E10E947502E980FA800B81BD
:1008D0001C81EE0CFF1C001F111FEE0CFF1C001FE3
:1008E000111FEE0CFF1C001F111F8E2D64E10E94D2
:1008F0007502BB27A12F902F8F2D63E10E947502F7
:10090000C801AA27BB2762E10E947502E12EFF24DD
:10091000002711278E2D61E10E947502DD2051F024
:1009200010E01B5E8E81612F0E947502145121968A
:100930001D15B8F380E062E271E00E94130228E81E
:1009400033E148EC50E0CA010197F1F72150304003
:10095000D1F780E0DF91CF911F910F91FF90EF9041
:10096000DF90089580E066E071E00E94130228E8BD
:1009700033E148EC50E0CA010197F1F721503040D3
:10098000D1F782E061E00E94750210E00AE104C044
:100990001F5F802F8A95F1F782E00E945B0282FD43
:1009A00002C01A30A9F782E00E945B0282FD82CF6A
:1009B00080E063E171E00E94130228E833E148EC33
:1009C00050E0CA010197F1F721503040D1F78FEF85
:1009D000C1CF80E067EF70E00E94130228E833E1A6
:1009E00048EC50E0CA010197F1F721503040D1F7AF
:1009F0000E94F80380E06EE00E94750280E06FE0E4
:100A00000E9475028CE00E945B020E94C3034DCFDE
:100A10002F923F924F925F926F927F928F929F920E
:100A2000AF92BF92CF92DF92EF92FF920F931F93FC
:100A3000DF93CF93CDB7DEB767970FB6F894DEBFDD
:100A40000FBECDBF698B7A8B8B8B9C8B49015A0172
:100A50000D8BEE8ACF8A0E94F803882309F04FC1DC
:100A6000A5019401569547953795279529873A878B
:100A70004B875C8754E0E52EF12C012D112D80E091
:100A80009AECAAE9BBE38D879E87AF87B88B1D825E
:100A90001E821F82188619821A821B821C8238C00D
:100AA000CA01B901A40193010E94610A9B01AC0132
:100AB00069857A858B859C850E94940A89899A89A3
:100AC000AB89BC89821B930BA40BB50B2D853E858E
:100AD0004F855889281739074A075B0708F44DC026
:100AE0008D879E87AF87B88B0894E11CF11C011D90
:100AF000111D32E3E316F1040105110509F446C0A6
:100B0000AD82BE82CF82D88629823A824B825C82B5
:100B100057016801D694C794B794A794350146014C
:100B20000894611C711C811C911CC401B3012989AA
:100B30003A894B895C890E94610A9B01AC016985F5
:100B40007A858B859C850E94940AD801C7018170A3
:100B50009070A070B070280F391F4A1F5B1F1901D9
:100B60002A010894210831084108510890E4291607
:100B700031044104510408F493CFAD80BE80CF808E
:100B8000D88429803A804B805C80AECF8D859E854D
:100B9000AF85B8890097A105B10581F069897A8987
:100BA0008B899C892D853E854F8558890E94940AA2
:100BB0002A3031054105510508F492C0C601B5013E
:100BC0006F5F7F4F8F4F9F4FAE892A2F30E040E0FD
:100BD00050E00E94610A24E630E040E050E00E94CC
:100BE000940A35014601621A730A840A950AB8E02C
:100BF0006B1671048104910408F06CC02EEF3FEF76
:100C00004FEF5FEFA20EB31EC41ED51ED601C50165
:100C100086199709A809B90922E030E040E050E0C0
:100C2000A20EB31EC41ED51E80319105A105B105CB
:100C300008F042C0182F3D893295330F330F307CB6
:100C4000832F822966E00E9475024F8941FD59C0B9
:100C500090E0862D8295807F812B892B67E00E9412
:100C600075020E94C30380E068E371E00E941302F2
:100C700028E833E148EC50E0CA010197F1F7215030
:100C80003040D1F780E067960FB6F894DEBF0FBE14
:100C9000CDBFCF91DF911F910F91FF90EF90DF902B
:100CA000CF90BF90AF909F908F907F906F905F900C
:100CB0004F903F902F9008952FEE622E2FEF722EBF
:100CC0002FEF822E2FEF922E6A0C7B1C8C1C9D1C0A
:100CD0001FE0B1CF37E0632E712C812C912C8ECF89
:100CE00080E068E271E00E94130228E833E148ECFA
:100CF00050E0CA010197F1F721503040D1F78FEF52
:100D0000C2CF90E8A6CF9F92AF92BF92CF92DF92D0
:100D1000EF92FF920F931F935B016C0179018A019F
:100D20000E94F803882331F5F3E19F2E8A2D692D67
:100D30000E94750284E0980E8E2D692D0E94750226
:100D4000AB2CBC2CCD2CDD24EF2CF02E012F112749
:100D50008BEF980E8FE0981649F70E94C30380E04E
:100D60001F910F91FF90EF90DF90CF90BF90AF90C9
:100D70009F9008958FEFF4CFCF92EF920F931F9330
:100D8000CF93DF93EC010E94F803882341F08FEFAB
:100D9000DF91CF911F910F91EF90CF9008958985AA
:100DA00080686FE10E94750280E064E00E94750235
:100DB0008A8568E00E9475020AE510E1802F612FA4
:100DC0000E947502015F1F5F023DC1F71AE500E155
:100DD00001C0115F802F0E945B02181709F048C004
:100DE0000F5F133CB1F760E070E080E090E02FEF20
:100DF0003FEF4FEF5FE00E948306882341F66D814D
:100E00007E818F819885611571058105910561F459
:100E100080E492E4AFE0B0E08D839E83AF83B88737
:100E200060E472E48FE090E029813A814B815C813B
:100E300000E0ABE4EA2ECC240E940805882309F0E8
:100E4000A6CF8FEA64E00E9475020E94C30380E08F
:100E500062E571E00E94130228E833E148EC50E0BB
:100E6000CA010197F1F721503040D1F780E090CFCF
:100E700080E065E471E00E94130228E833E148EC69
:100E800050E0CA010197F1F721503040D1F77FCFF0
:100E9000FC0161307105A1F06230710509F008951F
:100EA00080E06CE571E00E94130228E833E148EC31
:100EB00050E0CA010197F1F721503040D1F7089571
:100EC00081E0848382EA97E091838083089584E0BF
:100ED0008093FB011092FC011092FD011092FE0123
:100EE0001092FF0188E080930002E8E6F1E0A1E0C3
:100EF000B2E081918D9381E0E037F807D1F781E08E
:100F00008093EC018093ED018093EE018093EB01DF
:100F10001092EF011092F0018FEC86B980E687B94C
:100F2000369A80E061E771E00E94130228E833E11D
:100F300048EC50E0CA010197F1F721503040D1F759
:100F400080E00895CF93DF93EC0161307105F1F0FB
:100F50006130710548F06230710519F48091F1013A
:100F60008C83DF91CF91089580E060E871E00E946A
:100F7000130228E833E148EC50E0CA010197F1F789
:100F800021503040D1F7DF91CF9108958C81882393
:100F900041F30E949502A1EFB1E0EBEEF1E086E0B3
:100FA00001900D928150E1F70E94910280E798E054
:100FB00099838883D6CFCF92DF92EF92FF920F93DF
:100FC0001F93CF93DF9382EFC82E81E0D82E00E0ED
:100FD00010E020E030E0C0E0D0E0EE24FF24F60195
:100FE000608170E0F701EE5BFD4F761708F5A9010F
:100FF00098012F5F3F4F4F4F5F4F809119029091A3
:101000001A02A0911B02B0911C0282179307A40739
:10101000B50798F30091190210911A0220911B0252
:1010200030911C028081C80FD11D7F5F7617F8F2C6
:10103000662341F0F701E950FE4FCE0170E00E94B7
:10104000800A60830894E11CF11C0894C11CD11C27
:1010500083E0E816F10419F680E061E971E00E948E
:10106000130228E833E148EC50E0CA010197F1F798
:1010700021503040D1F707EF11E0C8ECD0E0F80183
:10108000408150E060E070E081E00E94250228E8A5
:1010900033E1CE010197F1F721503040D1F70F5FD6
:1010A0001F4FF1E00A3F1F0751F7E091F601EE23D1
:1010B00041F0F0E0EA50FE4F90818091F5019817E1
:1010C00058F41092FA01DF91CF911F910F91FF9088
:1010D000EF90DF90CF90089581E08093FA01F3CFF5
:1010E000CF93DF93EC016115710591F480E06AE91B
:1010F00071E00E94130228E833E148EC50E0CA0195
:101100000197F1F721503040D1F7DF91CF91089549
:1011100061307105D1F70E94DB0787EE98E0998373
:101120008883DF91CF9108951F920F920FB60F928F
:1011300011242F933F934F935F936F937F938F93DC
:101140009F93AF93BF93EF93FF934091EA01E42FF6
:10115000F0E085B1EE5BFD4F808350E060E070E031
:1011600080E00E942502E091EA01F0E0EE5BFD4F95
:10117000408150E060E070E081E00E94250228EBB1
:101180003BE048EC50E0CA010197F1F721503040B4
:10119000D1F78091EA018F5F8093EA01833018F0E4
:1011A0001092EA0180E0805A87B9369AFF91EF9158
:1011B000BF91AF919F918F917F916F915F914F916F
:1011C0003F912F910F900FBE0F901F901895CF93C6
:1011D000DF93EC016115710591F480E06BEA71E039
:1011E0000E94130228E833E148EC50E0CA0101975D
:1011F000F1F721503040D1F7DF91CF910895613060
:101200007105D1F710920B0210920C0210920D0290
:1012100010920E0290910F028091F201882341F00A
:10122000E92FF0E0E65FFD4F8091F70186839F5F35
:101230008091F301882341F0E92FF0E0E65FFD4F54
:101240008091F80186839F5F8091F401882341F0AB
:10125000E92FF0E0E65FFD4F8091F90186839F5F03
:1012600090930F028AE092E00E943D04882381F06F
:1012700080E069EB71E00E94130228E833E148EC5A
:1012800050E0CA010197F1F721503040D1F702C078
:101290000E94990282EA97E099838883DF91CF9137
:1012A0000895EF92FF920F931F93CF93DF93EB017B
:1012B000FC01218132814381548121153105410591
:1012C000510509F48EC0DA01C9017DE0B695A795F4
:1012D000979587957A95D1F78093EF01DA01C90147
:1012E0006BE0B695A795979587956A95D1F783702A
:1012F0008093F001ECEEF1E060E0613009F458C059
:101300006130D8F488E090E079018A0104C0169534
:101310000795F794E7948A95D2F7D801C7018770AB
:10132000843009F45CC0853070F4823009F455C013
:10133000833008F447C088E00CC0623009F43BC039
:1013400080E090E0E1CF863009F445C08630B0F50A
:1013500080E281936F5F633081F6569547953795AC
:101360002795822F81708093EB018091EC01882377
:1013700069F58091ED01882349F58091EE0188237C
:1013800029F580E069ED71E00E94130228E833E15D
:1013900048EC50E0CA010197F1F721503040D1F7F5
:1013A00080E0DF91CF911F910F91FF90EF90089512
:1013B00085E090E0A9CF82E090E0A6CF873049F0A9
:1013C00080E0C7CF8130E1F781E0C3CF81E08C833B
:1013D000D8CF80E8BECF80E4BCCF84E0BACF80E134
:1013E000B8CF8BEF91E00E943D04882311F08FEF7E
:1013F000D8CF0E94990280E06AEC71E00E9413024B
:1014000028E833E148EC50E0CA010197F1F7215098
:101410003040D1F7C5CF1F920F920FB60F92112413
:101420008F939F93AF93BF938091190290911A026B
:10143000A0911B02B0911C020196A11DB11D8093C9
:10144000190290931A02A0931B02B0931C02BF9141
:10145000AF919F918F910F900FBE0F901F90189595
:1014600012BE8CE78CBF89B7826089BF83B78B605F
:1014700083BF0895FC019B017183608360E070E08D
:10148000F90109950895CF93DF93EC01E881F98183
:10149000FB83EA8361E070E00995EA81FB81888142
:1014A0009981E817F90751F0CE0162E070E00995E3
:1014B000E881F981CE0160E070E00995DF91CF917C
:1014C0000895629FD001739FF001829FE00DF11D8E
:1014D000649FE00DF11D929FF00D839FF00D749FAE
:1014E000F00D659FF00D9927729FB00DE11DF91F5A
:1014F000639FB00DE11DF91FBD01CF0111240895B7
:10150000AA1BBB1B51E107C0AA1FBB1FA617B70729
:1015100010F0A61BB70B881F991F5A95A9F7809545
:101520009095BC01CD010895A1E21A2EAA1BBB1B08
:10153000FD010DC0AA1FBB1FEE1FFF1FA217B3079F
:10154000E407F50720F0A21BB30BE40BF50B661FB5
:10155000771F881F991F1A9469F760957095809579
:1015600090959B01AC01BD01CF010895FA01CF9385
:10157000FF93EF93223044F1253234F5C22FE894E3
:10158000CA3049F497FB3EF490958095709561952B
:101590007F4F8F4F9F4F2C2F332744275527FF9383
:1015A000EF930E94940AEF91FF91605D6A330CF013
:1015B000695D6193B901CA016050704080409040FC
:1015C00051F716F4CDE2C19310828F919F91CF9184
:1015D0000C94EA0ADC01FC01672F71917723E1F793
:1015E000329704C07C916D9370836291AE17BF07F0
:0815F000C8F30895F894FFCF41
:1015F80043414E2073656E7A6F7200436F6E666961
:1016080067206572726F722100526573746172741B
:10161800696E672E2E2E002000496E7465727275F1
:101628007074004E6F6E6520696E742E20666C6152
:1016380067004952513A205249206F722052425352
:10164800006275732D6F66660072657365747469E0
:101658006E672063686970004572722E206578692C
:1016680074207265736574005265736574206D6FBC
:101678006465206572726F72005265736574206DBF
:101688006F6465204F4B00427573207265636F76F7
:101698006572696E670054582074696D6564206FBF
:1016A8007574005478206572722E205265736574C3
:1016B80021005478204F4B00426175642072617498
:1016C80065206572726F7200426175642072617480
:1016D80065204F4B00436F6E666967206572726FB5
:1016E8007200436F6E666967204F4B0046534D206A
:1016F800696E6974204F4B00766F6B61636D696327
:101708000053656E736F7220696E6974204F4B00C9
:1017180046534D207761697420666F7220636D644B
:101728000041444320646174610046534D20636165
:10173800707475726520646174610046534D20733E
:10174800656E6420646174610053656E6420736122
:101758006D706C6573206572720049444E3F20615C
:101768006E73776572204F4B0053656E736F7220EE
:0A177800636F6E666967204F4B0037
:00000001FF
