:100000000C942A000C94AC000C9447000C9447000C
:100010000C9447000C9447000C9447000C94470044
:100020000C9447000C9447000C9447000C94470034
:100030000C9447000C9447000C94D5050C94470091
:100040000C9447000C9447000C9447000C946408EF
:100050000C94470011241FBECFE5D4E0DEBFCDBF16
:1000600010E0A0E6B0E0E6EFF2E102C005900D92EC
:10007000A63EB107D9F711E0A6EEB0E001C01D928F
:10008000A335B107E1F70E9449000C9479090C945B
:100090000000EF92FF920F931F93E0903301F090D6
:1000A0003401009135011091360178940E9489083D
:1000B0008CE00E94940180E060E670E00E94DD0127
:1000C00088EE93E00E94930887E391E063E876E08E
:1000D0000E94C8088AE090E0A0E0B0E0E80EF91EB7
:1000E0000A1F1B1F8091330190913401A0913501AB
:1000F000B09136018E159F05A007B10768F4809175
:100100004B01813079F710924B018DE391E067E369
:1001100071E00E94AF07E6CFE0903301F090340128
:100120000091350110913601409133015091340115
:10013000609135017091360181E00E94EF0187E303
:1001400091E00E94D1088AE090E0A0E0B0E0E80EE3
:10015000F91E0A1F1B1FD3CF1F920F920FB60F92CB
:1001600011242F933F934F935F936F937F938F93BC
:100170009F93AF93BF93EF93FF938DE391E00E9422
:10018000C102FF91EF91BF91AF919F918F917F91AC
:100190006F915F914F913F912F910F900FBE0F90F4
:1001A0001F901895662349F1C09AC1988B9A8C9A32
:1001B0008D9A8E9A969895989498939887FD1FC0DB
:1001C00086FD959A85FD949A84FD939AC29A00C003
:1001D000C298969895989498939883FD969A82FDE4
:1001E000959A81FD949A80FD939AC29A00C0C29814
:1001F000939A949A959A969A0895C098D6CF969A7B
:10020000DFCF882309F1C09AC19A8B988C988D987A
:100210008E98C29A00C0839B15C080E18499806249
:100220008599806486998068C29800C0C29A00C08F
:1002300083998160849982608599846086998860B9
:10024000C298089580E0EACFC098DECF80E00E9497
:10025000010187FDFBCF84E090E00197F1F780E09A
:100260000E94010108951F93182F0E942601812FDB
:1002700060E00E94D2001F9108951F93182F0E94E2
:100280002601812F61E00E94D2001F91089566230C
:1002900021F080540E943301089580580E94330158
:1002A00008950E94260190E0089581E00E943301A4
:1002B000089582E00E94330108951F93182F0E9431
:1002C00026011A3039F4803458F080E80E94330156
:1002D0001F910895812F61E00E94D2001F9108951F
:1002E00080ECF4CFCF93DF93FC018081882339F039
:1002F000EF010E945D01898121968823D1F7DF916A
:10030000CF910895CF93DF93FC018491882349F026
:10031000EF0121960E945D01FE01219684918823C0
:10032000C9F7DF91CF9108951F93182FB89AB99A02
:10033000BA9A8B9A8C9A8D9A8E9A80E09DE7019753
:10034000F1F7949A939AC29A00C0C29880E097E21B
:100350000197F1F7C29A00C0C29880E890E0FC01D2
:100360003197F1F7C29A00C0C298FC013197F1F7BA
:100370009398C29A00C0C2980197F1F788E20E9450
:10038000330188E00E9433010E94550186E00E94FB
:100390003301812F0E9433011F9108951F93682F0D
:1003A00080E00E94470110E08BE690E00E9472011D
:1003B0001F5F1031C9F71F910895FF920F931F938C
:1003C000F82E8B010E94CE0180E06F2D0E94470124
:1003D000C8010E9472011F910F91FF900895EF9242
:1003E000FF921F93DF93CF93CDB7DEB72B970FB656
:1003F000F894DEBF0FBECDBF182FCB01BA017E012E
:100400000894E11CF11CA7012AE030E00E94440995
:10041000812FB7010E94DD012B960FB6F894DEBF45
:100420000FBECDBFCF91DF911F91FF90EF90089548
:100430008FEF84BB8AB3806F8ABB8A98929A85B704
:1004400085BF8BB780648BBF0895DF98DD9ADC9AF7
:10045000DE9ADF9A9FEF94BB85BB82E0282F2A9516
:10046000F1F7DF98282F2A95F1F7DE98DD9895BBF4
:1004700014BA8A95F1F783B3DD9ADE9A0895DF986E
:10048000DD9ADC9ADE9ADF9A2FEF24BB65BB92E0FF
:10049000392F3A95F1F7DF98392F3A95F1F7DE9831
:1004A000DC9824BB85BB892F8A95F1F7DC9ADE9A0C
:1004B0009A95F1F708958BB780648BBF08958BB739
:1004C0008F7B8BBF089581E061E00E943F0280E056
:1004D0000895EF92FF920F931F93CF93DF937C01C8
:1004E00080E10E942502182F81E10E942502F70178
:1004F000818382E10E942502F701828383E10E94C9
:100500002502F701838384E10E9425028695869562
:100510008695F7018483212F221F2227221F220F75
:10052000220F812F90E00024880F991F001C880F54
:10053000991F001C892F902D8170282B20831F70FC
:100540001583012F1930D0F008E0E70110E0812F6A
:100550008B5E0E9425028E831F5F21961017B8F3D1
:1005600081E0F701868784E061E00E943F02DF912D
:10057000CF911F910F91FF90EF900895112329F7CC
:10058000EFCF0F931F93CF93DF93EC0183E00E9493
:100590002502182F8F7A29F4DF91CF911F910F91A7
:1005A000089582E00E942502082F80FD0AC01C7A6F
:1005B00011F007FD0AC081E0DF91CF911F910F91EB
:1005C0000895CE010E946902F2CF80E060E00E94AF
:1005D0003F0281E0E1CF1F93CF93DF9380E00E9441
:1005E000250280FF1AC010E0C8ECD0E002C013332F
:1005F00079F080E060E00E943F02CE010197F1F7C0
:100600001F5F80E00E94250280FDF1CF1A3028F0A4
:100610008FEFDF91CF911F9108950E945B0280E0E0
:10062000DF91CF911F9108951F93CF93DF930E9485
:100630005F0280E00E94250280FD18C010E0C8EC37
:10064000D0E081E060E00E943F02CE010197F1F727
:100650001F5F80E00E94250280FD06C01B3089F7E5
:100660000E945B028FEF03C01A30D0F780E0DF9169
:10067000CF911F9108950F931F93CF93DF93EC01B8
:1006800010E00AE104C01F5F802F8A95F1F782E035
:100690000E94250282FD02C01A30A9F787FD34C0EE
:1006A00082E00E94250282FF3FC00D81093050F593
:1006B000802F806860E10E943F028C81880F880F44
:1006C000880F64E10E943F028B8163E10E943F0238
:1006D0008A8162E10E943F02898161E10E943F02BA
:1006E000002351F010E01B5E8E81612F0E943F02BB
:1006F000145121961017B8F380E0DF91CF911F912C
:100700000F91089508E0D4CF0E94140380E06EE0BA
:100710000E943F0280E06FE00E943F028CE00E9456
:1007200025020E94EB02BCCF82E061E00E943F0202
:1007300010E00AE104C01F5F802F8A95F1F782E084
:100740000E94250282FD02C01A30A9F782E00E94B1
:10075000250282FDAACF8FEFD0CF2F923F924F92EA
:100760005F926F927F928F929F92AF92BF92CF9241
:10077000DF92EF92FF920F931F93DF93CF93CDB74A
:10078000DEB767970FB6F894DEBF0FBECDBF698B9B
:100790007A8B8B8B9C8B49015A010D8BEE8ACF8A09
:1007A0000E941403882309F042C1A50194015695C3
:1007B00047953795279529873A874B875C8780E04F
:1007C0009AECAAE9BBE38D879E87AF87B88B1D8221
:1007D0001E821F82188619821A821B821C8274E074
:1007E000E72EF12C012D112D38C0CA01B901A40149
:1007F00093010E94EF089B01AC0169857A858B8586
:100800009C850E94220989899A89AB89BC89821BAF
:10081000930BA40BB50B2D853E854F855889281762
:1008200039074A075B0708F44DC08D879E87AF875D
:10083000B88B0894E11CF11C011D111D32E3E31675
:10084000F1040105110509F446C0AD82BE82CF82D4
:10085000D88629823A824B825C8257016801D694FD
:10086000C794B794A794350146010894611C711C84
:10087000811C911CC401B30129893A894B895C8987
:100880000E94EF089B01AC0169857A858B859C8568
:100890000E942209D801C70181709070A070B070C9
:1008A000280F391F4A1F5B1F19012A0108942108CC
:1008B00031084108510890E42916310441045104DB
:1008C00008F493CFAD80BE80CF80D88429803A8051
:1008D0004B805C80AECF8D859E85AF85B8890097B3
:1008E000A105B10581F069897A898B899C892D855B
:1008F0003E854F8558890E9422092A3031054105DD
:10090000510508F48BC0C601B5016F5F7F4F8F4F53
:100910009F4FAE892A2F30E040E050E00E94EF0860
:1009200024E630E040E050E00E9422093501460113
:10093000621A730A840A950AB8E06B16710481047E
:10094000910408F065C02EEF3FEF4FEF5FEFA20E6E
:10095000B31EC41ED51ED601C50186199709A80964
:10096000B90922E030E040E050E0A20EB31EC41E00
:10097000D51E80319105A105B105E0F5182F3D89FF
:100980003295330F330F307C832F822966E00E942B
:100990003F024F8941FD4DC090E0862D8295807FBA
:1009A000812B892B67E00E943F020E94EB0280E0CE
:1009B0006BE770E00E94DD0188EE93E00E949308EF
:1009C00080E067960FB6F894DEBF0FBECDBFCF9123
:1009D000DF911F910F91FF90EF90DF90CF90BF902C
:1009E000AF909F908F907F906F905F904F903F90CF
:1009F0002F9008954FEE642E4FEF742E4FEF842EFC
:100A00004FEF942E6A0C7B1C8C1C9D1C1FE0B7CFF3
:100A100057E0652E712C812C912C95CF80E06DE6EE
:100A200070E00E94DD0188EE93E00E9493088FEF52
:100A3000C8CF90E8B2CF9F92AF92BF92CF92DF9291
:100A4000EF92FF920F931F935B016C0179018A0172
:100A50000E941403882331F5B3E19B2E8A2D692D62
:100A60000E943F0284E0980E8E2D692D0E943F0265
:100A7000AB2CBC2CCD2CDD24EF2CF02E012F11271C
:100A80008BEF980E8FE0981649F70E94EB0280E0FA
:100A90001F910F91FF90EF90DF90CF90BF90AF909C
:100AA0009F9008958FEFF4CFCF92EF920F931F9303
:100AB000CF93DF93EC010E941403882341F08FEF62
:100AC000DF91CF911F910F91EF90CF90089588897A
:100AD00080686FE10E943F0280E064E00E943F0274
:100AE000898968E00E943F020AE510E1802F612FAA
:100AF0000E943F02015F1F5F023DC1F71AE500E15E
:100B000001C0115F802F0E942502181709F042C012
:100B10000F5F133CB1F76C857D858E859F85288599
:100B200039854A855B850E941B05882341F66C81C7
:100B30007D818E819F81611571058105910561F42B
:100B400080E492E4AFE0B0E08C839D83AE83BF830A
:100B500060E472E48FE090E0288139814A815B8112
:100B600000E01BE4E12ECC240E94AD03882309F0B1
:100B7000A6CF8FEA64E00E943F020E94EB0280E071
:100B80006DE970E00E94DD0188EE93E00E94930819
:100B900080E096CF80E06CE870E00E94DD0188EE96
:100BA00093E00E9493088FEF8BCF1F920F920FB6A6
:100BB0000F9211248F939F93EF93FF939091EA00EC
:100BC000E92FF0E085B1E45BFE4F80839F5F909357
:100BD000EA00933018F01092EA0090E0905A97B92A
:100BE000369AFF91EF919F918F910F900FBE0F90CA
:100BF0001F901895AF92BF92CF92DF92FF920F9302
:100C00001F93CF93DF9386EFA82E80E0B82E00E0ED
:100C100010E020E030E0CC24DD24F501F080E0E0BD
:100C200060E070E0E601C45BDE4FEF1508F5A90156
:100C300098012F5F3F4F4F4F5F4F8091330190914D
:100C40003401A0913501B091360182179307A407B2
:100C5000B50798F3009133011091340120913501CB
:100C6000309136018881680F711DEF5FEF15F8F242
:100C7000FF2049F0F601E150FF4FCB016F2D70E0EE
:100C80000E940E0960830894C11CD11C0894A11C09
:100C9000B11C83E0C816D10409F0BFCF3798E091AA
:100CA000FA00EE2341F0F0E0E250FF4F9081809196
:100CB000F900981760F410920201DF91CF911F9113
:100CC0000F91FF90DF90CF90BF90AF90089581E09B
:100CD00080930201F2CFCF93DF93EC016115710590
:100CE00031F486B1806C86B9DF91CF91089561307F
:100CF0007105D1F70E94FA058AE597E09983888308
:100D0000DF91CF9108951F93CF93DF93EC0161158D
:100D1000710509F064C00E94180280E492E4AFE01B
:100D2000B0E08093250190932601A0932701B09312
:100D3000280180E094E2A4EFB0E080932101909339
:100D40002201A0932301B09324018FEF9FEFAFEF17
:100D5000BFEF8093290190932A01A0932B01B093B8
:100D60002C0180932D0190932E01A0932F01B0931D
:100D7000300118E0109331018AE18093320181E261
:100D800091E00E9454058823A9F584E08093030133
:100D900081E08093040110920501109206011092E7
:100DA000070110930801EBEAF0E0A9E0B1E08191BE
:100DB0008D9380E0E33BF807D1F78FE086B980E6BA
:100DC00087B91C8280E066ED70E00E94DD0188EE4C
:100DD00093E00E949308DF91CF911F9108956130B5
:100DE0007105C9F78DE097E099838883DF91CF91F2
:100DF0001F91089580E064EB70E00E94DD0188EEB1
:100E000093E00E94930880E065EC70E00E94DD01B1
:100E100088EE93E00E949308DECFCF93DF93EC013E
:100E20006130710549F06230710519F48091F50067
:100E30008C83DF91CF9108958C818823D1F3209109
:100E40003301309134014091350150913601809148
:100E5000E6009091E700A091E800B091E900885188
:100E60009C4FAF4FBF4F281739074A075B0708F35E
:100E70008091330190913401A0913501B0913601F8
:100E80008093E6009093E700A093E800B093E90018
:100E90000E945F02A5EFB0E0EBEEF0E08AE0019087
:100EA0000D928150E1F70E945B028BE696E09983F8
:100EB0008883BFCFCF93DF93EC016130710519F0C8
:100EC000DF91CF9108958091FB0080931301809171
:100ED000FC00809314018091FD0080931501209106
:100EE000FE00209316018091F600882379F590E0AA
:100EF0008091F700882341F0E92FF0E0EE5EFE4F8D
:100F00008091000186839F5F8091F800882341F0E3
:100F1000E92FF0E0EE5EFE4F8091010186839F5F36
:100F20009093170180910201882319F02F5F20937D
:100F3000160182E191E00E943B03882369F08DE075
:100F400097E099838883DF91CF9108958091FF0086
:100F50008093180191E0CCCF0E946302F0CFFC0196
:100F6000DB0181818F3F09F4A3C0813011F080E063
:100F700008953381832F8695869586958770843072
:100F800009F48CC0853008F454C0863009F476C06A
:100F9000863008F054C040E24093EC00832F877005
:100FA000843009F471C0853008F05FC0823009F4E4
:100FB00079C0833008F074C0813009F44AC090E0F1
:100FC0009093ED002481822F8695869587708430DA
:100FD00009F462C0853008F040C0823009F452C084
:100FE000833008F057C0813091F180E08093EE00AB
:100FF000442329F4992319F4882309F4B8CF91E004
:101000009093F10082818093F2003093F30020935B
:10101000F4008093EF003295369536953370309317
:10102000F000269521702093EB0014969C9380E0AD
:101030000895823029F1833030F048E0ADCF873019
:1010400051F040E0A9CF8130E1F741E0A5CF81E048
:10105000CDCF91E0B5CF40E89FCF863039F18630D3
:1010600018F1873011F680E8C1CF863089F08630DC
:1010700068F0873009F0A3CF90E8A2CF40E48CCF8E
:1010800044E08ACF84E0B2CF90E19ACF90E298CF4B
:1010900090E496CF88E0AACF80E1A8CF40E17CCF52
:1010A00098E08ECF94E08CCF80E2A0CF80E49ECFFA
:1010B00083E091E00E943B03882311F08FEF0895B5
:1010C0000E94630280E008951F920F920FB60F9264
:1010D00011248F939F93AF93BF938091330190918D
:1010E0003401A0913501B09136010196A11DB11DC9
:1010F0008093330190933401A0933501B09336016E
:10110000BF91AF919F918F910F900FBE0F901F9045
:10111000189512BE8CE78CBF89B7826089BF83B7F0
:101120008B6083BF0895EF92FF920F931F932091DE
:1011300033013091340140913501509136012093B3
:101140004F013093500140935101509352017C0163
:1011500000E010E080914F0190915001A091510169
:10116000B091520120913301309134014091350109
:10117000509136018E0D9F1DA01FB11F821793073E
:10118000A407B50738F71F910F91FF90EF900895CE
:10119000FC019B017183608360E070E0F9010995B7
:1011A0000895CF93DF93EC01E881F981FB83EA8313
:1011B00061E070E00995EA81FB8188819981E817F7
:1011C000F90751F0CE0162E070E00995E881F981FC
:1011D000CE0160E070E00995DF91CF910895629FA4
:1011E000D001739FF001829FE00DF11D649FE00D1F
:1011F000F11D929FF00D839FF00D749FF00D659F80
:10120000F00D9927729FB00DE11DF91F639FB00D7E
:10121000E11DF91FBD01CF0111240895AA1BBB1BBD
:1012200051E107C0AA1FBB1FA617B70710F0A61BE6
:10123000B70B881F991F5A95A9F780959095BC0107
:10124000CD010895A1E21A2EAA1BBB1BFD010DC002
:10125000AA1FBB1FEE1FFF1FA217B307E407F50766
:1012600020F0A21BB30BE40BF50B661F771F881F42
:10127000991F1A9469F760957095809590959B01D8
:10128000AC01BD01CF010895FA01CF93FF93EF9315
:101290002230CCF02532BCF4C22F2C2F3327442728
:1012A0005527FF93EF930E942209EF91FF91605D14
:1012B0006A330CF0695D6193B901CA0160507040F6
:1012C0008040904051F710828F919F91CF910C9464
:1012D0006909DC01FC01672F71917723E1F73297EF
:1012E00004C07C916D9370836291AE17BF07C8F301
:0612F0000895F894FFCF01
:1012F60043414E2073656E7A6F7200200053414A57
:1013060020622D72206572726F7200534A4120620C
:101316006175642072617465204F4B00534A412009
:10132600636F6E666967206572726F7200534A4119
:1013360020636F6E666967204F4B00766F6B616343
:101346006D696300534A4120636F6E666967206565
:1013560072726F720052657374617274696E67207F
:1013660063686970210053656E736F7220696E69D8
:0613760074204F4B000043
:00000001FF
