:100000000C942A000C9495000C9447000C94470023
:100010000C9447000C9447000C9447000C94470044
:100020000C9447000C9447000C9447000C94470034
:100030000C9447000C9447000C94B0060C944700B5
:100040000C9447000C9447000C9447000C947709DB
:100050000C94470011241FBECFE5D4E0DEBFCDBF16
:1000600012E0A0E6B0E0ECE1F5E102C005900D92EF
:10007000A630B107D9F712E0A6E0B2E001C01D92A8
:10008000AF36B107E1F70E9449000C948C0A0C943A
:100090000000EF92FF920F931F93E0904F02F090B9
:1000A0005002009151021091520278940E949C09D2
:1000B0008CE00E948A0180E060E670E00E94D3013B
:1000C00088EE93E00E94A60983E592E067E677E078
:1000D0000E94DB09A80197012C593F4F4F4F5F4FFA
:1000E00080914F0290915002A0915102B091520222
:1000F00082179307A407B50798F3E0904F02F0909A
:100100005002009151021091520240914F025091C1
:100110005002609151027091520281E00E94E5010B
:1001200083E592E00E94E409D5CF1F920F920FB6AB
:100130000F9211242F933F934F935F936F937F936D
:100140008F939F93AF93BF93EF93FF9389E592E0D3
:100150000E94FA0280916702813089F0FF91EF914D
:10016000BF91AF919F918F917F916F915F914F91CF
:100170003F912F910F900FBE0F901F9018951092E6
:10018000670289E592E063E572E00E94BF08E6CF6E
:10019000662349F1C09AC1988B9A8C9A8D9A8E9A4F
:1001A000969895989498939887FD1FC086FD959A88
:1001B00085FD949A84FD939AC29A00C0C29896983D
:1001C00095989498939883FD969A82FD959A81FDCF
:1001D000949A80FD939AC29A00C0C298939A949A76
:1001E000959A969A0895C098D6CF969ADFCF88238D
:1001F00009F1C09AC19A8B988C988D988E98C29A62
:1002000000C0839B15C080E18499806285998064D9
:1002100086998068C29800C0C29A00C083998160A4
:10022000849982608599846086998860C2980895CF
:1002300080E0EACFC098DECF80E00E94F70087FD23
:10024000FBCF84E090E00197F1F780E00E94F70097
:1002500008951F93182F0E941C01812F60E00E94B7
:10026000C8001F9108951F93182F0E941C01812F11
:1002700061E00E94C8001F910895662321F0805418
:100280000E942901089580580E94290108950E9422
:100290001C0190E0089581E00E942901089582E008
:1002A0000E94290108951F93182F0E941C011A30E3
:1002B00039F4803458F080E80E9429011F91089594
:1002C000812F61E00E94C8001F91089580ECF4CF57
:1002D000CF93DF93FC018081882339F0EF010E94E6
:1002E0005301898121968823D1F7DF91CF91089519
:1002F000CF93DF93FC018491882349F0EF0121968D
:100300000E945301FE01219684918823C9F7DF9151
:10031000CF9108951F93182FB89AB99ABA9A8B9AC9
:100320008C9A8D9A8E9A80E09DE70197F1F7949AC6
:10033000939AC29A00C0C29880E097E20197F1F7C1
:10034000C29A00C0C29880E890E0FC013197F1F7B2
:10035000C29A00C0C298FC013197F1F79398C29AF3
:1003600000C0C2980197F1F788E20E94290188E055
:100370000E9429010E944B0186E00E942901812FE1
:100380000E9429011F9108951F93682F80E00E9409
:100390003D0110E08BE690E00E9468011F5F103184
:1003A000C9F71F910895FF920F931F93F82E8B01A9
:1003B0000E94C40180E06F2D0E943D01C8010E948F
:1003C00068011F910F91FF900895EF92FF921F9384
:1003D000DF93CF93CDB7DEB72B970FB6F894DEBF80
:1003E0000FBECDBF182FCB01BA017E010894E11CCE
:1003F000F11CA7012AE030E00E94570A812FB701C3
:100400000E94D3012B960FB6F894DEBF0FBECDBF6E
:10041000CF91DF911F91FF90EF9008958FEF84BBF4
:100420008AB3806F8ABB8A98929A85B785BF8BB74B
:1004300080648BBF0895DF98DD9ADC9ADE9ADF9A9C
:100440009FEF94BB85BB82E0282F2A95F1F7DF98B8
:10045000282F2A95F1F7DE98DD9895BB14BA8A9576
:10046000F1F783B3DD9ADE9A0895DF98DD9ADC9A7E
:10047000DE9ADF9A2FEF24BB65BB92E0392F3A95C5
:10048000F1F7DF98392F3A95F1F7DE98DC9824BB25
:1004900085BB892F8A95F1F7DC9ADE9A9A95F1F758
:1004A00008958BB780648BBF08958BB78F7B8BBF0C
:1004B000089581E061E00E94350280E008956F9226
:1004C0007F928F929F92AF92BF92CF92DF92EF92E4
:1004D000FF920F931F93CF93DF933C0180E10E9423
:1004E0001B02982E81E10E941B02B82EBB0CBB0C94
:1004F000AA24CC24B7FCC094DC2C82E10E941B020D
:10050000882E83E10E941B02E82E84E10E941B02D8
:10051000382D3295330F307E20E0442737FD40954B
:10052000542FFF24EE0CFF1CE294F29470EFF7229C
:10053000FE24E722FE240027F7FC0095102F2E0D45
:100540003F1D401F511F869586958695280F311DAA
:10055000411D511D6BE0AA0CBB1CCC1CDD1C6A9517
:10056000D1F72A0D3B1D4C1D5D1DF3012183328304
:1005700043835483292D221F2227221F220F220F5B
:10058000892D90E00024880F991F001C880F991F67
:10059000001C892F902D8170282B2083FFE09F2243
:1005A000F3019582092D093010F108E0E30110E014
:1005B000812F8B5E0E941B028E831F5F2196101776
:1005C000B8F381E0F301868784E061E00E943502A0
:1005D000DF91CF911F910F91FF90EF90DF90CF901F
:1005E000BF90AF909F908F907F906F9008959920CB
:1005F000E9F6E7CF0F931F93CF93DF93EC0183E0EE
:100600000E941B02182F8F7AA1F46DE670E00E9401
:10061000D30120E137E248EC50E0CA010197F1F73D
:1006200021503040D1F780E0DF91CF911F910F91A1
:10063000089582E00E941B02082F80FD0AC01C7AE8
:1006400011F007FD1BC081E0DF91CF911F910F9149
:10065000089580E06EE770E00E94D30120E137E268
:1006600048EC50E0CA010197F1F721503040D1F732
:10067000CE010E945F021C7A21F7E5CF80E06EE890
:1006800070E00E94D30120E137E248EC50E0CA015B
:100690000197F1F721503040D1F780E06AE970E02E
:1006A0000E94D30120E137E248EC50E0CA010197F3
:1006B000F1F721503040D1F780E060E00E94350230
:1006C00081E0B2CF1F93CF93DF9380E00E941B02A3
:1006D00080FF15C010E0C8ECD0E002C01333B1F0C9
:1006E00080E060E00E943502CE010197F1F71F5FC4
:1006F00080E00E941B0280FDF1CF1A3038F40E9486
:10070000510280E0DF91CF911F91089580E06AEA65
:1007100070E00E94D30188EE93E00E94A6098FEF5B
:10072000F1CF1F93CF93DF930E94550280E00E9488
:100730001B0280FD21C010E0C8ECD0E081E060E049
:100740000E943502CE010197F1F71F5F80E00E9401
:100750001B0280FD0FC01B3089F780E06BEB70E05F
:100760000E94D30188EE93E00E94A6090E945102E4
:100770008FEF0CC01A3088F780E06CEC70E00E94BC
:10078000D30188EE93E00E94A60980E0DF91CF912B
:100790001F910895DF92EF92FF920F931F93CF93D3
:1007A000DF93EC0110E00AE104C01F5F802F8A95FF
:1007B000F1F782E00E941B0282FD02C01A30A9F705
:1007C00087FD8DC082E00E941B0282FF54C0DD8045
:1007D00088E08D1508F44CC08D2D806860E10E9482
:1007E0003502E980FA800B811C81EE0CFF1C001F92
:1007F000111FEE0CFF1C001F111FEE0CFF1C001F31
:10080000111F8E2D64E10E943502BB27A12F902F6E
:100810008F2D63E10E943502C801AA27BB2762E140
:100820000E943502E12EFF24002711278E2D61E161
:100830000E943502DD2051F010E01B5E8E81612F99
:100840000E943502145121961D15B8F380E06AE12B
:1008500071E00E94D30188EE93E00E94A60980E037
:10086000DF91CF911F910F91FF90EF90DF9008954E
:1008700098E0D92EB1CF80E06CEE70E00E94D301F9
:1008800088EE93E00E94A60982E061E00E943502B2
:1008900010E00AE104C01F5F802F8A95F1F782E023
:1008A0000E941B0282FD02C01A30A9F782E00E945A
:1008B0001B0282FD8CCF80E06DEF70E00E94D301BF
:1008C00088EE93E00E94A60980E06AE071E00E9451
:1008D000D30188EE93E00E94A6098FEFC1CF80E09C
:1008E0006CED70E00E94D30188EE93E00E94A609AF
:1008F0000E94910380E06EE00E94350280E06FE08C
:100900000E9435028CE00E941B020E9462035ACFB3
:100910002F923F924F925F926F927F928F929F920F
:10092000AF92BF92CF92DF92EF92FF920F931F93FD
:10093000DF93CF93CDB7DEB767970FB6F894DEBFDE
:100940000FBECDBF698B7A8B8B8B9C8B49015A0173
:100950000D8BEE8ACF8A0E949103882309F042C151
:10096000A5019401569547953795279529873A878C
:100970004B875C8780E09AECAAE9BBE38D879E8772
:10098000AF87B88B1D821E821F82188619821A8239
:100990001B821C8254E0E52EF12C012D112D38C054
:1009A000CA01B901A40193010E94020A9B01AC0192
:1009B00069857A858B859C850E94350A89899A8903
:1009C000AB89BC89821B930BA40BB50B2D853E858F
:1009D0004F855889281739074A075B0708F44DC027
:1009E0008D879E87AF87B88B0894E11CF11C011D91
:1009F000111D32E3E316F1040105110509F446C0A7
:100A0000AD82BE82CF82D88629823A824B825C82B6
:100A100057016801D694C794B794A794350146014D
:100A20000894611C711C811C911CC401B3012989AB
:100A30003A894B895C890E94020A9B01AC01698555
:100A40007A858B859C850E94350AD801C701817003
:100A50009070A070B070280F391F4A1F5B1F1901DA
:100A60002A010894210831084108510890E4291608
:100A700031044104510408F493CFAD80BE80CF808F
:100A8000D88429803A804B805C80AECF8D859E854E
:100A9000AF85B8890097A105B10581F069897A8988
:100AA0008B899C892D853E854F8558890E94350A02
:100AB0002A3031054105510508F48BC0C601B50146
:100AC0006F5F7F4F8F4F9F4FAE892A2F30E040E0FE
:100AD00050E00E94020A24E630E040E050E00E942C
:100AE000350A35014601621A730A840A950AB8E08C
:100AF0006B1671048104910408F065C02EEF3FEF7E
:100B00004FEF5FEFA20EB31EC41ED51ED601C50166
:100B100086199709A809B90922E030E040E050E0C1
:100B2000A20EB31EC41ED51E80319105A105B105CC
:100B3000E0F5182F3D893295330F330F307C832F2A
:100B4000822966E00E9435024F8941FD4DC090E048
:100B5000862D8295807F812B892B67E00E9435024C
:100B60000E94620380E062E371E00E94D30188EE9C
:100B700093E00E94A60980E067960FB6F894DEBF66
:100B80000FBECDBFCF91DF911F910F91FF90EF90DE
:100B9000DF90CF90BF90AF909F908F907F906F909D
:100BA0005F904F903F902F9008952FEE622E2FEF81
:100BB000722E2FEF822E2FEF922E6A0C7B1C8C1C34
:100BC0009D1C1FE0B7CF37E0632E712C812C912C38
:100BD00095CF80E064E271E00E94D30188EE93E05B
:100BE0000E94A6098FEFC8CF90E8B2CF9F92AF9234
:100BF000BF92CF92DF92EF92FF920F931F935B0110
:100C00006C0179018A010E949103882331F5F3E197
:100C10009F2E8A2D692D0E94350284E0980E8E2D1C
:100C2000692D0E943502AB2CBC2CCD2CDD24EF2C81
:100C3000F02E012F11278BEF980E8FE0981649F7B1
:100C40000E94620380E01F910F91FF90EF90DF9070
:100C5000CF90BF90AF909F9008958FEFF4CFCF9239
:100C6000EF920F931F93CF93DF93EC010E949103B8
:100C7000882341F08FEFDF91CF911F910F91EF907B
:100C8000CF900895888980686FE10E94350280E0E6
:100C900064E00E943502898968E00E9435020AE515
:100CA00010E1802F612F0E943502015F1F5F023D1E
:100CB000C1F71AE500E101C0115F802F0E941B02FD
:100CC000181709F042C00F5F133CB1F76C857D85A2
:100CD0008E859F85288539854A855B850E94F60526
:100CE000882341F66C817D818E819F81611571051C
:100CF0008105910561F480E492E4AFE0B0E08C837B
:100D00009D83AE83BF8360E472E48FE090E028812E
:100D100039814A815B8100E0ABE4EA2ECC240E9459
:100D20008804882309F0A6CF8FEA64E00E94350288
:100D30000E94620380E064E571E00E94D30188EEC6
:100D400093E00E94A60980E096CF80E063E471E022
:100D50000E94D30188EE93E00E94A6098FEF8BCF0B
:100D60001F920F920FB60F9211248F939F93EF93C0
:100D7000FF9390910602E92FF0E085B1E859FD4F0D
:100D800080839F5F90930602933018F010920602C2
:100D900090E0905A97B9369AFF91EF919F918F9179
:100DA0000F900FBE0F901F901895AF92BF92CF92E9
:100DB000DF92FF920F931F93CF93DF9382E1A82ED0
:100DC00082E0B82E00E010E020E030E0CC24DD240A
:100DD000F501F080E0E060E070E0E601C859DD4F29
:100DE000EF1508F5A90198012F5F3F4F4F4F5F4F57
:100DF00080914F0290915002A0915102B091520205
:100E000082179307A407B50798F300914F0210913A
:100E1000500220915102309152028881680F711D59
:100E2000EF5FEF15F8F2FF2049F0F601E55EFD4FA8
:100E3000CB016F2D70E00E94210A60830894C11CD1
:100E4000D11C0894A11CB11C83E0C816D10409F080
:100E5000BFCF3798E0911602EE2341F0F0E0E65E56
:100E6000FD4F908180911502981760F410921E0238
:100E7000DF91CF911F910F91FF90DF90CF90BF90A6
:100E8000AF90089581E080931E02F2CFCF93DF935D
:100E9000EC016115710579F480E062E671E00E9471
:100EA000D30188EE93E00E94A60986B1806C86B9D2
:100EB000DF91CF91089561307105D1F70E94D50679
:100EC0008BE498E099838883DF91CF9108951F93F5
:100ED000CF93DF93EC016130710509F48EC061306E
:100EE000710508F07AC00E940E0280E492E4AFE03F
:100EF000B0E08093410290934202A0934302B093EA
:100F0000440280E094E2A4EFB0E080933D0290932D
:100F10003E02A0933F02B09340028FEF9FEFAFEFEE
:100F2000BEEF8093450290934602A0934702B09390
:100F3000480280E090E0A0E0B1E080934902909305
:100F40004A02A0934B02B0934C0218E010934D025A
:100F50008AE180934E028DE392E00E942F0688235F
:100F600009F053C084E080931F0280E090E0A0E28B
:100F7000B0E08093200290932102A0932202B093CC
:100F8000230210932402E3E7F1E0A5E2B2E08191AD
:100F90008D9381E0EB37F807D1F78FE086B980E6D3
:100FA00087B91C8281E080930802809309028093B4
:100FB0000A028093070210920B0210920C028C839B
:100FC00080E06EE971E00E94D30188EE93E00E9418
:100FD000A609DF91CF911F9108956230710549F400
:100FE00080E06DEA71E00E94D30188EE93E00E94F8
:100FF000A609DF91CF911F91089588E198E0998328
:101000008883DF91CF911F91089580E06CE771E0B4
:101010000E94D30188EE93E00E94A60980E06DE86B
:1010200071E00E94D30188EE93E00E94A609E1CF0F
:10103000CF93DF93EC0161307105C1F06130710530
:1010400048F06230710519F4809111028C83DF91B0
:10105000CF91089580E069EB71E00E94D30188EEA2
:1010600093E00E94A609DF91CF9108958C81882397
:1010700071F30E945502A1E1B2E0E7E0F2E08AE0FC
:1010800001900D928150E1F70E94510286E497E0B1
:1010900099838883DCCFCF93DF93EC0161157105D1
:1010A00061F480E06AEC71E00E94D30188EE93E085
:1010B0000E94A609DF91CF91089561307105D1F7A3
:1010C00020911702309118024091190250911A0292
:1010D00020932F023093300240933102509332021A
:1010E00080911202882309F041C090E080911302A0
:1010F000882341F0E92FF0E0E25DFD4F80911C0272
:1011000086839F5F80911402882341F0E92FF0E0ED
:10111000E25DFD4F80911D0286839F5F90933302B5
:1011200080911E02882361F02F5F3F4F4F4F5F4F2A
:1011300020932F02309330024093310250933202B9
:101140008EE292E00E94CA038823B1F080E066ED4F
:1011500071E00E94D30188EE93E00E94A60988E125
:1011600098E099838883DF91CF91089580911B0245
:101170008093340291E0BACF0E945902F0CFEF92EF
:10118000FF920F931F93CF93DF93EB01FC0121811B
:101190003281438154812030F0E03F07F0EE4F0769
:1011A000FFE15F0709F48EC0E8E0F2E060E0613043
:1011B00009F448C06130D0F488E090E079018A01F8
:1011C00004C016950795F794E7948A95D2F7D8014D
:1011D000C7018770843009F473C0853060F48230B1
:1011E00009F46CC08330C0F188E00BC0623069F153
:1011F00080E090E0E3CF863009F45EC0863040F5B1
:1012000080E281936F5F633091F6809108028823BA
:1012100039F580910902882319F580910A02882303
:10122000F9F480E065EF71E00E94D30188EE93E06D
:101230000E94A60980E0DF91CF911F910F91FF904E
:10124000EF90089585E090E0B9CF82E090E0B6CFCE
:10125000873081F180E0D5CF8130E1F781E0D1CFD7
:1012600020930D0230930E0240930F025093100210
:10127000DA01C9017DE0B695A795979587957A958E
:10128000D1F780930B02DA01C9016BE0B695A795FF
:10129000979587956A95D1F7837080930C02569540
:1012A000479537952795822F81708093070281E0BB
:1012B0008C83B7CF80E8A5CF80E4A3CF84E0A1CF13
:1012C00080E19FCF8FE192E00E94CA03882311F052
:1012D0008FEFB1CF0E94590280E066EE71E00E946C
:1012E000D30188EE93E00E94A60980E0A4CF1F926C
:1012F0000F920FB60F9211248F939F93AF93BF93CA
:1013000080914F0290915002A0915102B0915202EF
:101310000196A11DB11D80934F0290935002A0939E
:101320005102B0935202BF91AF919F918F910F9054
:101330000FBE0F901F90189512BE8CE78CBF89B717
:10134000826089BF83B78B6083BF0895EF92FF925D
:101350000F931F9320914F02309150024091510200
:101360005091520220936B0230936C0240936D02B5
:1013700050936E027C0100E010E080916B0290912E
:101380006C02A0916D02B0916E0220914F023091DB
:10139000500240915102509152028E0D9F1DA01F8C
:1013A000B11F82179307A407B50738F71F910F9154
:1013B000FF90EF900895FC019B017183608360E0D2
:1013C00070E0F90109950895CF93DF93EC01E8816E
:1013D000F981FB83EA8361E070E00995EA81FB8192
:1013E00088819981E817F90751F0CE0162E070E039
:1013F0000995E881F981CE0160E070E00995DF91FF
:10140000CF910895629FD001739FF001829FE00DFC
:10141000F11D649FE00DF11D929FF00D839FF00D73
:10142000749FF00D659FF00D9927729FB00DE11D1F
:10143000F91F639FB00DE11DF91FBD01CF011124FC
:101440000895AA1BBB1B51E107C0AA1FBB1FA6170B
:10145000B70710F0A61BB70B881F991F5A95A9F75D
:1014600080959095BC01CD010895A1E21A2EAA1B8A
:10147000BB1BFD010DC0AA1FBB1FEE1FFF1FA21744
:10148000B307E407F50720F0A21BB30BE40BF50B41
:10149000661F771F881F991F1A9469F760957095CA
:1014A000809590959B01AC01BD01CF010895FA0193
:1014B000CF93FF93EF932230CCF02532BCF4C22FB0
:1014C0002C2F332744275527FF93EF930E94350A8B
:1014D000EF91FF91605D6A330CF0695D6193B90132
:1014E000CA01605070408040904051F710828F9147
:1014F0009F91CF910C947C0ADC01FC01672F7191C4
:101500007723E1F7329704C07C916D9370836291E9
:0C151000AE17BF07C8F30895F894FFCF92
:10151C0043414E2073656E7A6F72002000534A412E
:10152C00206E6F6E6520696E7420666C6700534A7E
:10153C0041204952512052492C2052425300534AC7
:10154C0041206275732D6F666600534A41207265A7
:10155C0073657474696E672E2E00534A4120657250
:10156C007220657869742072737400534A4120723A
:10157C007374206D6F64652065727200534A41204C
:10158C00727374206D6F6465204F4B00534A412079
:10159C00627573207265636F76657200534A4120E1
:1015AC0054582074696D6564206F757400534A41FA
:1015BC00205458206572726F7200526573657420E6
:1015CC00534A4120636869702100534A41205458A2
:1015DC002E2E2E0053414A20622D72206572726F9E
:1015EC007200534A412062617564207261746520F7
:1015FC004F4B00534A4120636F6E666967206572DA
:10160C00726F7200534A4120636F6E666967204F98
:10161C004B0046534D206361707475726520646194
:10162C00746100766F6B61636D696300534A41208E
:10163C00636F6E666967206572726F7200526573B4
:10164C0074617274696E67206368697021005365F8
:10165C006E736F7220696E6974204F4B0046534D48
:10166C0020696E6974204F4B0046534D2077616999
:10167C007420666F7220636D640046534D2054587D
:10168C0020646174610046534D2054582064617489
:10169C0061206572720049444E3F20616E7377651C
:1016AC0072204F4B0053656E736F7220636F6E66C2
:0616BC006967204F4B009E
:00000001FF
